{
  "_format": "hh-sol-artifact-1",
  "contractName": "TestCallSolana",
  "sourceName": "contracts/TestCallSolana/TestCallSolana.sol",
  "abi": [
    {
      "anonymous": false,
      "inputs": [
        {
          "indexed": false,
          "internalType": "bytes32",
          "name": "salt",
          "type": "bytes32"
        },
        {
          "indexed": false,
          "internalType": "uint64",
          "name": "space",
          "type": "uint64"
        },
        {
          "indexed": false,
          "internalType": "uint64",
          "name": "lamports",
          "type": "uint64"
        },
        {
          "indexed": false,
          "internalType": "bytes32",
          "name": "programId",
          "type": "bytes32"
        },
        {
          "indexed": false,
          "internalType": "bytes32",
          "name": "response",
          "type": "bytes32"
        }
      ],
      "name": "CreateResource",
      "type": "event"
    },
    {
      "anonymous": false,
      "inputs": [
        {
          "indexed": false,
          "internalType": "bytes",
          "name": "response",
          "type": "bytes"
        }
      ],
      "name": "LogData",
      "type": "event"
    },
    {
      "inputs": [],
      "name": "CALL_SOLANA",
      "outputs": [
        {
          "internalType": "contract ICallSolana",
          "name": "",
          "type": "address"
        }
      ],
      "stateMutability": "view",
      "type": "function"
    },
    {
      "inputs": [
        {
          "internalType": "uint64[]",
          "name": "lamports",
          "type": "uint64[]"
        },
        {
          "internalType": "bytes32[]",
          "name": "salt",
          "type": "bytes32[]"
        },
        {
          "internalType": "bytes[]",
          "name": "instruction",
          "type": "bytes[]"
        }
      ],
      "name": "batchExecute",
      "outputs": [],
      "stateMutability": "nonpayable",
      "type": "function"
    },
    {
      "inputs": [
        {
          "internalType": "bytes32",
          "name": "salt",
          "type": "bytes32"
        },
        {
          "internalType": "uint64",
          "name": "space",
          "type": "uint64"
        },
        {
          "internalType": "uint64",
          "name": "lamports",
          "type": "uint64"
        },
        {
          "internalType": "bytes32",
          "name": "program_id",
          "type": "bytes32"
        }
      ],
      "name": "createResource",
      "outputs": [
        {
          "internalType": "bytes32",
          "name": "",
          "type": "bytes32"
        }
      ],
      "stateMutability": "nonpayable",
      "type": "function"
    },
    {
      "inputs": [
        {
          "internalType": "uint64",
          "name": "lamports",
          "type": "uint64"
        },
        {
          "internalType": "bytes32",
          "name": "salt",
          "type": "bytes32"
        },
        {
          "internalType": "bytes",
          "name": "instruction",
          "type": "bytes"
        }
      ],
      "name": "execute",
      "outputs": [],
      "stateMutability": "nonpayable",
      "type": "function"
    },
    {
      "inputs": [
        {
          "internalType": "bytes32",
          "name": "salt",
          "type": "bytes32"
        }
      ],
      "name": "getExtAuthority",
      "outputs": [
        {
          "internalType": "bytes32",
          "name": "",
          "type": "bytes32"
        }
      ],
      "stateMutability": "view",
      "type": "function"
    },
    {
      "inputs": [
        {
          "internalType": "address",
          "name": "_address",
          "type": "address"
        }
      ],
      "name": "getNeonAddress",
      "outputs": [
        {
          "internalType": "bytes32",
          "name": "",
          "type": "bytes32"
        }
      ],
      "stateMutability": "view",
      "type": "function"
    },
    {
      "inputs": [],
      "name": "getPayer",
      "outputs": [
        {
          "internalType": "bytes32",
          "name": "",
          "type": "bytes32"
        }
      ],
      "stateMutability": "view",
      "type": "function"
    },
    {
      "inputs": [
        {
          "internalType": "bytes32",
          "name": "salt",
          "type": "bytes32"
        }
      ],
      "name": "getResourceAddress",
      "outputs": [
        {
          "internalType": "bytes32",
          "name": "",
          "type": "bytes32"
        }
      ],
      "stateMutability": "view",
      "type": "function"
    },
    {
      "inputs": [
        {
          "internalType": "bytes32",
          "name": "program_id",
          "type": "bytes32"
        },
        {
          "internalType": "bytes",
          "name": "seeds",
          "type": "bytes"
        }
      ],
      "name": "getSolanaPDA",
      "outputs": [
        {
          "internalType": "bytes32",
          "name": "",
          "type": "bytes32"
        }
      ],
      "stateMutability": "view",
      "type": "function"
    }
  ],
  "bytecode": "0x60808060405234601557610b05908161001b8239f35b600080fdfe608080604052600436101561001357600080fd5b60003560e01c908162b8d849146106df57508063154d4aa51461064c57806330aa81c6146105e05780634a890f31146105365780634b5f1226146104e157806359e4ad631461046d578063b8aafbe11461028d578063cd2d1a3a146101e55763cfd51d321461008157600080fd5b346101e05760806003193601126101e05760043560243567ffffffffffffffff81168091036101e05760443567ffffffffffffffff81168091036101e05760643590604051927fcfd51d32000000000000000000000000000000000000000000000000000000008452846004850152806024850152816044850152826064850152602084608481600073ff000000000000000000000000000000000000065af19384156101d45760009461017d575b50937f36b88b9c2053cb655d8308ef7ebff9cc6a4234459e81d7191013344a75c1eac29260a0926020966040519384528784015260408301526060820152836080820152a1604051908152f35b90936020823d6020116101cc575b816101986020938361070c565b810103126101c9575051927f36b88b9c2053cb655d8308ef7ebff9cc6a4234459e81d7191013344a75c1eac2610130565b80fd5b3d915061018b565b6040513d6000823e3d90fd5b600080fd5b346101e05760206003193601126101e0576040517fcd2d1a3a000000000000000000000000000000000000000000000000000000008152600435600482015260208160248173ff000000000000000000000000000000000000065afa80156101d45760009061025a575b602090604051908152f35b506020813d602011610285575b816102746020938361070c565b810103126101e0576020905161024f565b3d9150610267565b346101e05760606003193601126101e05760043567ffffffffffffffff81116101e057366023820112156101e05780600401356102c9816107fd565b916102d7604051938461070c565b8183526024602084019260051b820101903682116101e057602401915b81831061044c578360243567ffffffffffffffff81116101e057366023820112156101e057806004013590610328826107fd565b91610336604051938461070c565b8083526024602084019160051b830101913683116101e057602401905b82821061043c575050506044359167ffffffffffffffff83116101e057366023840112156101e0578260040135610389816107fd565b93610397604051958661070c565b8185526024602086019260051b820101903682116101e05760248101925b82841061040c575050505082519160005b8381106103cf57005b8061040667ffffffffffffffff6103e86001948761087b565b51166103f4838661087b565b516103ff848a61087b565b5191610920565b016103c6565b833567ffffffffffffffff81116101e0576020916104318392602436918701016107b6565b8152019301926103b5565b8135815260209182019101610353565b823567ffffffffffffffff811681036101e0578152602092830192016102f4565b346101e05760206003193601126101e0576040517f59e4ad63000000000000000000000000000000000000000000000000000000008152600435600482015260208160248173ff000000000000000000000000000000000000065afa80156101d45760009061025a57602090604051908152f35b346101e05760606003193601126101e05760043567ffffffffffffffff811681036101e0576044359067ffffffffffffffff82116101e05761052a6105349236906004016107b6565b9060243590610920565b005b346101e05760406003193601126101e05760243567ffffffffffffffff81116101e057602061056c6105af9236906004016107b6565b604051809381927f4a890f310000000000000000000000000000000000000000000000000000000083526004356004840152604060248401526044830190610838565b038173ff000000000000000000000000000000000000065afa80156101d45760009061025a57602090604051908152f35b346101e05760006003193601126101e0576040517f30aa81c600000000000000000000000000000000000000000000000000000000815260208160048173ff000000000000000000000000000000000000065afa80156101d45760009061025a57602090604051908152f35b346101e05760206003193601126101e05760043573ffffffffffffffffffffffffffffffffffffffff81168091036101e057604051907f154d4aa5000000000000000000000000000000000000000000000000000000008252600482015260208160248173ff000000000000000000000000000000000000065afa80156101d45760009061025a57602090604051908152f35b346101e05760006003193601126101e0578073ff0000000000000000000000000000000000000660209252f35b90601f7fffffffffffffffffffffffffffffffffffffffffffffffffffffffffffffffe0910116810190811067ffffffffffffffff82111761074d57604052565b7f4e487b7100000000000000000000000000000000000000000000000000000000600052604160045260246000fd5b67ffffffffffffffff811161074d57601f017fffffffffffffffffffffffffffffffffffffffffffffffffffffffffffffffe01660200190565b81601f820112156101e0578035906107cd8261077c565b926107db604051948561070c565b828452602083830101116101e057816000926020809301838601378301015290565b67ffffffffffffffff811161074d5760051b60200190565b60005b8381106108285750506000910152565b8181015183820152602001610818565b907fffffffffffffffffffffffffffffffffffffffffffffffffffffffffffffffe0601f60209361087481518092818752878088019101610815565b0116010190565b805182101561088f5760209160051b010190565b7f4e487b7100000000000000000000000000000000000000000000000000000000600052603260045260246000fd5b6020818303126101e05780519067ffffffffffffffff82116101e0570181601f820112156101e05780516108f18161077c565b926108ff604051948561070c565b818452602082840101116101e05761091d9160208085019101610815565b90565b90918215610a0c5760009161097f67ffffffffffffffff9260405195869485947f326074500000000000000000000000000000000000000000000000000000000086521660048501526024840152606060448401526064830190610838565b03818373ff000000000000000000000000000000000000065af19081156101d4577fe33eb0896a1b189f05b8c6d69ce71e4db20a0f91fc82ae4d6384ad76ba6e5580916109e4916000916109e9575b505b604051918291602083526020830190610838565b0390a1565b610a0691503d806000833e6109fe818361070c565b8101906108be565b386109ce565b915067ffffffffffffffff600091610a5f60405194859384937fc549a7af000000000000000000000000000000000000000000000000000000008552166004840152604060248401526044830190610838565b03818373ff000000000000000000000000000000000000065af19081156101d4577fe33eb0896a1b189f05b8c6d69ce71e4db20a0f91fc82ae4d6384ad76ba6e5580916109e491600091610ab4575b506109d0565b610ac991503d806000833e6109fe818361070c565b38610aae56fea2646970667358221220132a023973b96040e6ce38fd242816937ee99cc038a28eff87b7180c299053b764736f6c634300081a0033",
  "linkReferences": {},
  "deployedLinkReferences": {}
}