{
  "_format": "hh-sol-artifact-1",
  "contractName": "BondingCurve",
  "sourceName": "contracts/MemecoinLaunchpad/BondingCurve.sol",
  "abi": [
    {
      "inputs": [
        {
          "internalType": "uint256",
          "name": "_a",
          "type": "uint256"
        },
        {
          "internalType": "uint256",
          "name": "_b",
          "type": "uint256"
        }
      ],
      "stateMutability": "nonpayable",
      "type": "constructor"
    },
    {
      "inputs": [],
      "name": "A",
      "outputs": [
        {
          "internalType": "uint256",
          "name": "",
          "type": "uint256"
        }
      ],
      "stateMutability": "view",
      "type": "function"
    },
    {
      "inputs": [],
      "name": "B",
      "outputs": [
        {
          "internalType": "uint256",
          "name": "",
          "type": "uint256"
        }
      ],
      "stateMutability": "view",
      "type": "function"
    },
    {
      "inputs": [
        {
          "internalType": "uint256",
          "name": "x0",
          "type": "uint256"
        },
        {
          "internalType": "uint256",
          "name": "deltaY",
          "type": "uint256"
        }
      ],
      "name": "getAmountOut",
      "outputs": [
        {
          "internalType": "uint256",
          "name": "deltaX",
          "type": "uint256"
        }
      ],
      "stateMutability": "view",
      "type": "function"
    },
    {
      "inputs": [
        {
          "internalType": "uint256",
          "name": "x0",
          "type": "uint256"
        },
        {
          "internalType": "uint256",
          "name": "deltaX",
          "type": "uint256"
        }
      ],
      "name": "getFundsReceived",
      "outputs": [
        {
          "internalType": "uint256",
          "name": "deltaY",
          "type": "uint256"
        }
      ],
      "stateMutability": "view",
      "type": "function"
    }
  ],
  "bytecode": "0x60c034608357601f6108ed38819003918201601f19168301916001600160401b038311848410176088578084926040948552833981010312608357602081519101519060805260a05260405161084e908161009f823960805181818160810152818161012a01526101ca015260a05181818160ba0152818161019601526104d30152f35b600080fd5b634e487b7160e01b600052604160045260246000fdfe608080604052600436101561001357600080fd5b60003560e01c90816332e7c5bf1461049f575080637cabb7cf14610185578063901ce73e146100a95763f446c1d01461004b57600080fd5b346100a45760007ffffffffffffffffffffffffffffffffffffffffffffffffffffffffffffffffc3601126100a45760206040517f00000000000000000000000000000000000000000000000000000000000000008152f35b600080fd5b346100a4576100b7366104f6565b907f0000000000000000000000000000000000000000000000000000000000000000918082106100a4576100f8610103610109926100fd6100f88688610537565b610585565b9461052a565b84610537565b90600082820392128183128116918313901516176101565760209161014e917f0000000000000000000000000000000000000000000000000000000000000000610763565b604051908152f35b7f4e487b7100000000000000000000000000000000000000000000000000000000600052601160045260246000fd5b346100a457610193366104f6565b907f0000000000000000000000000000000000000000000000000000000000000000916101ef6101c66100f88486610537565b91847f000000000000000000000000000000000000000000000000000000000000000091610763565b810180911161015657806fffffffffffffffffffffffffffffffff1060071b81811c67ffffffffffffffff1060061b1781811c63ffffffff1060051b1781811c61ffff1060041b1781811c60ff1060031b176000821315610491577ff8f9f9faf9fdfafbf9fdfcfdfafbfcfef9fafdfafcfcfbfefafafcfbffffffff6f8421084210842108cc6318c6db6d54be83831c1c601f161a1890811b609f1c7ffffffffffffffff5f6af8f7b3396644f18e15796000000000000000000000000816c465772b2bbbb5f824b15207a3001820260601d6d0388eaa27412d5aca026815d636e01820260601d6d0df99ac502031bf953eff472fdcc01820260601d6d13cdffb29d51d99322bdff5f221101820260601d6d0a0f742023def783a307a986912e01820260601d6d01920d8043ca89b5239253284e4201820260601d6c0b7a86d7375468fac667a0a52701917fffffffffffffffffffffffffffffffffffffff465fda27eb4d63ded474e5f832817ffffffffffffffffffffffffffffffffffffffdc7b88c420e53a9890533129f6f817fffffffffffffffffffffffffffffffffffffff73c0c716a594e00d54e3c4cbc9818080806c29508e458543d8aa4df2abee78010260601d6d0139601a2efabe717e604cbb4894010260601d6d02247f7a7b6594320649aa03aba1010260601d010260601d010260601d01020105711340daa0d5f769dba1915cef59f0815a55060290609f037d0267a36c0c95b3975ab3ee5b203a7614a3f75373f047d803ae7b6687f2b302017d57115e47018c7177eebf7cd370a3356a1b7863008a5ae8028c72b88642840160ae1d907812725dd1d243aba0e75fe645cc4873f9e65afe688c928e1f22821083021561048357602092670de0b6b3a764000061014e93020461052a565b637c5f487d6000526004601cfd5b631615e6386000526004601cfd5b346100a45760007ffffffffffffffffffffffffffffffffffffffffffffffffffffffffffffffffc3601126100a4576020907f00000000000000000000000000000000000000000000000000000000000000008152f35b7ffffffffffffffffffffffffffffffffffffffffffffffffffffffffffffffffc60409101126100a4576004359060243590565b9190820391821161015657565b90807fffffffffffffffffffffffffffffffffffffffffffffffffffffffffffffffff048211610571575b670de0b6b3a764000091020490565b80156105625763bac65e5b6000526004601cfd5b7ffffffffffffffffffffffffffffffffffffffffffffffffdc0d0570925a462d781131561075d57680755bf798b4a1bf1e581121561074f576503782dace9d990604e1b0574029d9dc38563c32e5c2f6dc192ee70ef65f9978af36b8000000000000000000000006bb17217f7d1cf79abc9e3b3988360601b050160601d916bb17217f7d1cf79abc9e3b3988302900379d835ebba824c98fb31b83b2ca45c000000000000000000000000816c10fe68e7fd37d0007b713f765081010260601d916e0587f503bb6ea29d25fcb7401964506e05180bb14799ab47a8a8cb2a527d57827ffffffffffffffffffffffffffffffffffffd38dc772608b0ae56cce01296c0eb816db1bbb201f443cf962f1a1d3db4a5817fffffffffffffffffffffffffffffffffffffe5adedaa1cb095af9e4da10e363c816d0277594991cfc85f6e2461837cd9817fffffffffffffffffffffffffffffffffffffffdbf3ccf1604d263450f02a550481010260601d010260601d010260601d010260601d010260601d01937ffffffffffffffffffffffffffffffffffffffe2c69812cf03b0763fd454a8f7e836d02d16720577bd19bf614176fe9ea83019201010260601d01020105029060c3031c90565b63a37bfec96000526004601cfd5b50600090565b8181029291811582850482141783021561077e575050900490565b807fffffffffffffffffffffffffffffffffffffffffffffffffffffffffffffffff8492840985811086019003920990826000038316928181111561080a57839004806003026002188082026002030280820260020302808202600203028082026002030280820260020302809102600203029360018484830304948060000304019211900302170290565b63ae47f7026000526004601cfdfea26469706673582212203a03cbb908440f9affbb814428eaba52c70c89debd5a43949e170daade0803cf64736f6c634300081a0033",
  "linkReferences": {},
  "deployedLinkReferences": {}
}