{
  "_format": "hh-sol-artifact-1",
  "contractName": "TestVaultCraftFlow",
  "sourceName": "contracts/TestCallSolana/TestVaultCraftFlow.sol",
  "abi": [
    {
      "inputs": [
        {
          "internalType": "address",
          "name": "initialOwner",
          "type": "address"
        },
        {
          "internalType": "bytes32",
          "name": "_NEON_EVM_PROGRAM",
          "type": "bytes32"
        },
        {
          "internalType": "bytes32",
          "name": "_RAYDIUM_PROGRAM",
          "type": "bytes32"
        }
      ],
      "stateMutability": "nonpayable",
      "type": "constructor"
    },
    {
      "inputs": [
        {
          "internalType": "address",
          "name": "owner",
          "type": "address"
        }
      ],
      "name": "OwnableInvalidOwner",
      "type": "error"
    },
    {
      "inputs": [
        {
          "internalType": "address",
          "name": "account",
          "type": "address"
        }
      ],
      "name": "OwnableUnauthorizedAccount",
      "type": "error"
    },
    {
      "anonymous": false,
      "inputs": [
        {
          "indexed": false,
          "internalType": "bytes",
          "name": "response",
          "type": "bytes"
        }
      ],
      "name": "ComposabilityResponse",
      "type": "event"
    },
    {
      "anonymous": false,
      "inputs": [
        {
          "indexed": true,
          "internalType": "address",
          "name": "previousOwner",
          "type": "address"
        },
        {
          "indexed": true,
          "internalType": "address",
          "name": "newOwner",
          "type": "address"
        }
      ],
      "name": "OwnershipTransferred",
      "type": "event"
    },
    {
      "inputs": [],
      "name": "ASSOCIATED_TOKEN_PROGRAM",
      "outputs": [
        {
          "internalType": "bytes32",
          "name": "",
          "type": "bytes32"
        }
      ],
      "stateMutability": "view",
      "type": "function"
    },
    {
      "inputs": [],
      "name": "CALL_SOLANA",
      "outputs": [
        {
          "internalType": "contract ICallSolana",
          "name": "",
          "type": "address"
        }
      ],
      "stateMutability": "view",
      "type": "function"
    },
    {
      "inputs": [],
      "name": "NEON_EVM_PROGRAM",
      "outputs": [
        {
          "internalType": "bytes32",
          "name": "",
          "type": "bytes32"
        }
      ],
      "stateMutability": "view",
      "type": "function"
    },
    {
      "inputs": [],
      "name": "RAYDIUM_PROGRAM",
      "outputs": [
        {
          "internalType": "bytes32",
          "name": "",
          "type": "bytes32"
        }
      ],
      "stateMutability": "view",
      "type": "function"
    },
    {
      "inputs": [],
      "name": "TOKEN_PROGRAM",
      "outputs": [
        {
          "internalType": "bytes32",
          "name": "",
          "type": "bytes32"
        }
      ],
      "stateMutability": "view",
      "type": "function"
    },
    {
      "inputs": [
        {
          "internalType": "uint64",
          "name": "lamports",
          "type": "uint64"
        },
        {
          "internalType": "bytes32",
          "name": "programId",
          "type": "bytes32"
        },
        {
          "internalType": "bytes",
          "name": "instruction",
          "type": "bytes"
        },
        {
          "internalType": "bytes",
          "name": "accountsData",
          "type": "bytes"
        }
      ],
      "name": "_executeComposabilityRequest",
      "outputs": [],
      "stateMutability": "nonpayable",
      "type": "function"
    },
    {
      "inputs": [
        {
          "internalType": "address",
          "name": "tokenIn",
          "type": "address"
        },
        {
          "internalType": "uint256",
          "name": "amount",
          "type": "uint256"
        }
      ],
      "name": "deposit",
      "outputs": [],
      "stateMutability": "nonpayable",
      "type": "function"
    },
    {
      "inputs": [
        {
          "internalType": "address",
          "name": "token",
          "type": "address"
        },
        {
          "internalType": "uint64",
          "name": "amount",
          "type": "uint64"
        },
        {
          "internalType": "bytes[]",
          "name": "instructions",
          "type": "bytes[]"
        },
        {
          "internalType": "bytes[]",
          "name": "accountsDatas",
          "type": "bytes[]"
        }
      ],
      "name": "depositIntoRaydium",
      "outputs": [],
      "stateMutability": "nonpayable",
      "type": "function"
    },
    {
      "inputs": [
        {
          "internalType": "bytes32",
          "name": "svm_address",
          "type": "bytes32"
        },
        {
          "internalType": "bytes32",
          "name": "mint",
          "type": "bytes32"
        }
      ],
      "name": "getAssociateTokenAccount",
      "outputs": [
        {
          "internalType": "bytes32",
          "name": "",
          "type": "bytes32"
        }
      ],
      "stateMutability": "view",
      "type": "function"
    },
    {
      "inputs": [
        {
          "internalType": "address",
          "name": "evm_address",
          "type": "address"
        }
      ],
      "name": "getNeonAddress",
      "outputs": [
        {
          "internalType": "bytes32",
          "name": "",
          "type": "bytes32"
        }
      ],
      "stateMutability": "view",
      "type": "function"
    },
    {
      "inputs": [
        {
          "internalType": "address",
          "name": "token",
          "type": "address"
        },
        {
          "internalType": "address",
          "name": "evm_address",
          "type": "address"
        }
      ],
      "name": "getNeonArbitraryTokenAccount",
      "outputs": [
        {
          "internalType": "bytes32",
          "name": "",
          "type": "bytes32"
        }
      ],
      "stateMutability": "view",
      "type": "function"
    },
    {
      "inputs": [],
      "name": "owner",
      "outputs": [
        {
          "internalType": "address",
          "name": "",
          "type": "address"
        }
      ],
      "stateMutability": "view",
      "type": "function"
    },
    {
      "inputs": [],
      "name": "renounceOwnership",
      "outputs": [],
      "stateMutability": "nonpayable",
      "type": "function"
    },
    {
      "inputs": [
        {
          "internalType": "address",
          "name": "newOwner",
          "type": "address"
        }
      ],
      "name": "transferOwnership",
      "outputs": [],
      "stateMutability": "nonpayable",
      "type": "function"
    },
    {
      "inputs": [
        {
          "internalType": "bytes[]",
          "name": "instructions",
          "type": "bytes[]"
        },
        {
          "internalType": "bytes[]",
          "name": "accountsDatas",
          "type": "bytes[]"
        }
      ],
      "name": "withdrawFromRaydium",
      "outputs": [],
      "stateMutability": "nonpayable",
      "type": "function"
    }
  ],
  "bytecode": "0x60c0346100fa57601f61138f38819003918201601f19168301916001600160401b038311848410176100ff578084926060946040528339810103126100fa5780516001600160a01b03811691908290036100fa57604060208201519101519082156100e457600080546001600160a01b031981168517825560405194916001600160a01b03909116907f8be0079c531659141344cd1fd0a4f28419497f9722a3daafe3b4186f6b6457e09080a360805260a0526112799081610116823960805181818160dc0152610309015260a0518181816101ea0152818161042c01526108bd0152f35b631e4fbdf760e01b600052600060045260246000fd5b600080fd5b634e487b7160e01b600052604160045260246000fdfe608080604052600436101561001357600080fd5b600090813560e01c908162b8d84914610cd357508063154d4aa514610c0b578063161a6e3c14610bd05780631da1e2a214610ba65780633876e2f814610abb5780633ae0ac9614610a8057806347e7ef24146109db5780635b1f58fb14610733578063715018a6146106b55780638da5cb5b1461068257806394107c44146103b7578063a22a0f951461020d578063c481eea9146101d2578063f2fde38b146101025763f6b5abb6146100c557600080fd5b346100ff57806003193601126100ff5760206040517f00000000000000000000000000000000000000000000000000000000000000008152f35b80fd5b50346100ff5760206003193601126100ff5773ffffffffffffffffffffffffffffffffffffffff610131610d01565b6101396111f4565b1680156101a65773ffffffffffffffffffffffffffffffffffffffff8254827fffffffffffffffffffffffff00000000000000000000000000000000000000008216178455167f8be0079c531659141344cd1fd0a4f28419497f9722a3daafe3b4186f6b6457e08380a380f35b6024827f1e4fbdf700000000000000000000000000000000000000000000000000000000815280600452fd5b50346100ff57806003193601126100ff5760206040517f00000000000000000000000000000000000000000000000000000000000000008152f35b50346100ff5760406003193601126100ff57610227610d01565b60243573ffffffffffffffffffffffffffffffffffffffff81168091036103b35761033e92916020917fffffffffffffffffffffffffffffffffffffffff000000000000000000000000604051927f0300000000000000000000000000000000000000000000000000000000000000858501527f436f6e7472616374446174610000000000000000000000000000000000000000602185015260601b16602d8301526041820152604181526102dd606182610d83565b604051809481927f4a890f310000000000000000000000000000000000000000000000000000000083527f00000000000000000000000000000000000000000000000000000000000000006004840152604060248401526044830190610df8565b038173ff000000000000000000000000000000000000065afa9081156103a7579061036f575b602090604051908152f35b506020813d60201161039f575b8161038960209383610d83565b8101031261039a5760209051610364565b600080fd5b3d915061037c565b604051903d90823e3d90fd5b8280fd5b50346100ff5760406003193601126100ff578060043567ffffffffffffffff811161067f576103ea903690600401610d52565b60249291923567ffffffffffffffff81116103b35761052a93604061049861049061041c6104e9953690600401610d52565b9690946104276111f4565b61048b7f000000000000000000000000000000000000000000000000000000000000000061046c61045885856110ae565b906104638d8c6110ae565b92909185610f2d565b6104768484611136565b6104838c8b949394611136565b939092610f2d565b611195565b959093611195565b949092818684519788967f06ddf6e1d765a193d9cbe146ceeb79ac1cb485ed5f5b37913a8cf5857eff00a960208901528688013785019184830189815237010184815203601f198101835282610d83565b604051809381927fc549a7af000000000000000000000000000000000000000000000000000000008352846004840152604060248401526044830190610df8565b03818373ff000000000000000000000000000000000000065af1908115610674578291610592575b5061058c7f7270760dc44bb9cfddfb9cf3d643e0e4137b0e557d50e4f1cff89d4a32472ce991604051918291602083526020830190610df8565b0390a180f35b90503d8083833e6105a38183610d83565b8101906020818303126103b35780519067ffffffffffffffff821161064357019080601f830112156103b35781519067ffffffffffffffff821161064757604051906105f96020601f19601f8601160183610d83565b828252602083850101116106435761063c61058c927f7270760dc44bb9cfddfb9cf3d643e0e4137b0e557d50e4f1cff89d4a32472ce99460208085019101610dd5565b9150610552565b8380fd5b6024847f4e487b710000000000000000000000000000000000000000000000000000000081526041600452fd5b6040513d84823e3d90fd5b50fd5b50346100ff57806003193601126100ff5773ffffffffffffffffffffffffffffffffffffffff6020915416604051908152f35b50346100ff57806003193601126100ff576106ce6111f4565b8073ffffffffffffffffffffffffffffffffffffffff81547fffffffffffffffffffffffff000000000000000000000000000000000000000081168355167f8be0079c531659141344cd1fd0a4f28419497f9722a3daafe3b4186f6b6457e08280a380f35b50346100ff5760806003193601126100ff5761074d610d01565b6024359067ffffffffffffffff82168092036103b35760443567ffffffffffffffff811161064357610783903690600401610d52565b926064359067ffffffffffffffff8211610944576107ba73ffffffffffffffffffffffffffffffffffffffff923690600401610d52565b9290946107c56111f4565b1690604051907f154d4aa500000000000000000000000000000000000000000000000000000000825230600483015260208260248173ff000000000000000000000000000000000000065afa9182156109d057889261099c575b50604051917faf25c077000000000000000000000000000000000000000000000000000000008352602083600481875afa92831561099157899361095b575b5061086d602093604492610e1d565b8960405195869485937faf554c5b000000000000000000000000000000000000000000000000000000008552600485015260248401525af180156109505761090e575b5061048361090361090b957f0000000000000000000000000000000000000000000000000000000000000000946108fe6108ea83836110ae565b906108f5888b6110ae565b9290918a610f2d565b611136565b929094611136565b80f35b6020813d602011610948575b8161092760209383610d83565b8101031261094457519384151585036109445793506104836108b0565b8580fd5b3d915061091a565b6040513d88823e3d90fd5b92506020833d602011610989575b8161097660209383610d83565b8101031261039a5791519161086d61085e565b3d9150610969565b6040513d8b823e3d90fd5b9091506020813d6020116109c8575b816109b860209383610d83565b8101031261039a5751903861081f565b3d91506109ab565b6040513d8a823e3d90fd5b50346100ff5760406003193601126100ff578073ffffffffffffffffffffffffffffffffffffffff610a0b610d01565b16803b1561067f578180916064604051809581937f23b872dd00000000000000000000000000000000000000000000000000000000835233600484015230602484015260243560448401525af18015610a7357610a655780f35b610a6e91610d83565b388180f35b50604051903d90823e3d90fd5b50346100ff57806003193601126100ff5760206040517f06ddf6e1d765a193d9cbe146ceeb79ac1cb485ed5f5b37913a8cf5857eff00a98152f35b50346100ff5760806003193601126100ff5760043567ffffffffffffffff8116809103610ba2578160443567ffffffffffffffff8111610ba257610b03903690600401610d24565b909260643567ffffffffffffffff81116106435761052a946040610b2e610b61933690600401610d24565b959092818784519889966024356020890152868801378501918483018a815237010185815203601f198101845283610d83565b60405193849283927fc549a7af0000000000000000000000000000000000000000000000000000000084526004840152604060248401526044830190610df8565b5080fd5b50346100ff5760406003193601126100ff576020610bc8602435600435610e1d565b604051908152f35b50346100ff57806003193601126100ff5760206040517f8c97258f4e2489f1bb3d1029148e0d830b5a1399daff1084048e7bd8dbe9f8598152f35b50346100ff5760206003193601126100ff57610c25610d01565b73ffffffffffffffffffffffffffffffffffffffff604051917f154d4aa500000000000000000000000000000000000000000000000000000000835216600482015260208160248173ff000000000000000000000000000000000000065afa908115610674578291610c9d575b602082604051908152f35b90506020813d602011610ccb575b81610cb860209383610d83565b81010312610ba257602091505138610c92565b3d9150610cab565b905034610ba25781600319360112610ba2578073ff0000000000000000000000000000000000000660209252f35b6004359073ffffffffffffffffffffffffffffffffffffffff8216820361039a57565b9181601f8401121561039a5782359167ffffffffffffffff831161039a576020838186019501011161039a57565b9181601f8401121561039a5782359167ffffffffffffffff831161039a576020808501948460051b01011161039a57565b90601f601f19910116810190811067ffffffffffffffff821117610da657604052565b7f4e487b7100000000000000000000000000000000000000000000000000000000600052604160045260246000fd5b60005b838110610de85750506000910152565b8181015183820152602001610dd8565b90601f19601f602093610e1681518092818752878088019101610dd5565b0116010190565b602090610ec79260405191838301527f06ddf6e1d765a193d9cbe146ceeb79ac1cb485ed5f5b37913a8cf5857eff00a96040830152606082015260608152610e66608082610d83565b604051809381927f4a890f310000000000000000000000000000000000000000000000000000000083527f8c97258f4e2489f1bb3d1029148e0d830b5a1399daff1084048e7bd8dbe9f8596004840152604060248401526044830190610df8565b038173ff000000000000000000000000000000000000065afa908115610f2157600091610ef2575090565b90506020813d602011610f19575b81610f0d60209383610d83565b8101031261039a575190565b3d9150610f00565b6040513d6000823e3d90fd5b6040836104e99360009695610f689880855198899760208901528688013785019184830189815237010184815203601f198101835282610d83565b03818373ff000000000000000000000000000000000000065af1908115610f2157600091610fd0575b50610fcb7f7270760dc44bb9cfddfb9cf3d643e0e4137b0e557d50e4f1cff89d4a32472ce991604051918291602083526020830190610df8565b0390a1565b903d8082843e610fe08184610d83565b820191602081840312610ba25780519067ffffffffffffffff82116103b3570182601f82011215610ba25780519167ffffffffffffffff831161108157604051936110356020601f19601f8701160186610d83565b838552602084840101116100ff57509161107a610fcb927f7270760dc44bb9cfddfb9cf3d643e0e4137b0e557d50e4f1cff89d4a32472ce99460208085019101610dd5565b9150610f91565b807f4e487b7100000000000000000000000000000000000000000000000000000000602492526041600452fd5b9015611107578035907fffffffffffffffffffffffffffffffffffffffffffffffffffffffffffffffe18136030182121561039a57019081359167ffffffffffffffff831161039a57602001823603811361039a579190565b7f4e487b7100000000000000000000000000000000000000000000000000000000600052603260045260246000fd5b9060011015611107576020810135907fffffffffffffffffffffffffffffffffffffffffffffffffffffffffffffffe18136030182121561039a57019081359167ffffffffffffffff831161039a57602001823603811361039a579190565b9060021015611107576040810135907fffffffffffffffffffffffffffffffffffffffffffffffffffffffffffffffe18136030182121561039a57019081359167ffffffffffffffff831161039a57602001823603811361039a579190565b73ffffffffffffffffffffffffffffffffffffffff60005416330361121557565b7f118cdaa7000000000000000000000000000000000000000000000000000000006000523360045260246000fdfea2646970667358221220f90427ee974a6869ff3124295b803679cc9e8bffd9f115917dff5ed0f058451d64736f6c634300081a0033",
  "linkReferences": {},
  "deployedLinkReferences": {}
}