{
  "_format": "hh-sol-artifact-1",
  "contractName": "TestAPI3",
  "sourceName": "contracts/TestAPI3/TestAPI3.sol",
  "abi": [
    {
      "inputs": [
        {
          "internalType": "address",
          "name": "proxy",
          "type": "address"
        }
      ],
      "name": "readDataFeed",
      "outputs": [
        {
          "internalType": "int224",
          "name": "value",
          "type": "int224"
        },
        {
          "internalType": "uint32",
          "name": "timestamp",
          "type": "uint32"
        }
      ],
      "stateMutability": "view",
      "type": "function"
    }
  ],
  "bytecode": "0x608080604052346015576102e7908161001b8239f35b600080fdfe608080604052600436101561001357600080fd5b60003560e01c63072c7dde1461002857600080fd5b346102ac5760207ffffffffffffffffffffffffffffffffffffffffffffffffffffffffffffffffc3601126102ac5760043573ffffffffffffffffffffffffffffffffffffffff81168091036102ac57816004816040937f57de26a40000000000000000000000000000000000000000000000000000000082525afa9081156102a05760009081926101e3575b50601b0b9060008213156101855763ffffffff169062015180820163ffffffff81116101565763ffffffff42911611156100f85760409182519182526020820152f35b60646040517f08c379a000000000000000000000000000000000000000000000000000000000815260206004820152601c60248201527f54696d657374616d70206f6c646572207468616e206f6e6520646179000000006044820152fd5b7f4e487b7100000000000000000000000000000000000000000000000000000000600052601160045260246000fd5b60646040517f08c379a000000000000000000000000000000000000000000000000000000000815260206004820152601260248201527f56616c7565206e6f7420706f73697469766500000000000000000000000000006044820152fd5b90915060403d604011610299575b7fffffffffffffffffffffffffffffffffffffffffffffffffffffffffffffffe0601f820116820182811067ffffffffffffffff82111761026c5760409183918352810103126102685780519081601b0b820361026457602001519163ffffffff831683036102615750386100b5565b80fd5b8280fd5b5080fd5b6024847f4e487b710000000000000000000000000000000000000000000000000000000081526041600452fd5b503d6101f1565b6040513d6000823e3d90fd5b600080fdfea2646970667358221220e33f621e4263c0e53f34037c0a2640005f3abb60d7cac54758c0db48bba97bc464736f6c634300081a0033",
  "linkReferences": {},
  "deployedLinkReferences": {}
}