{
  "_format": "hh-sol-artifact-1",
  "contractName": "TestICSFlow",
  "sourceName": "contracts/TestCallSolana/TestICSFlow.sol",
  "abi": [
    {
      "inputs": [
        {
          "internalType": "bytes32",
          "name": "_NEON_EVM_PROGRAM",
          "type": "bytes32"
        },
        {
          "internalType": "bytes32",
          "name": "_ORCA_PROGRAM",
          "type": "bytes32"
        },
        {
          "internalType": "bytes32",
          "name": "_JUPITER_PROGRAM",
          "type": "bytes32"
        },
        {
          "internalType": "bytes32",
          "name": "_RAYDIUM_PROGRAM",
          "type": "bytes32"
        }
      ],
      "stateMutability": "nonpayable",
      "type": "constructor"
    },
    {
      "inputs": [],
      "name": "InvalidInstruction",
      "type": "error"
    },
    {
      "inputs": [],
      "name": "InvalidSolanaAccount",
      "type": "error"
    },
    {
      "inputs": [],
      "name": "InvalidSolanaAccountParameters",
      "type": "error"
    },
    {
      "inputs": [],
      "name": "InvalidSolanaProgram",
      "type": "error"
    },
    {
      "anonymous": false,
      "inputs": [
        {
          "indexed": false,
          "internalType": "bytes",
          "name": "response",
          "type": "bytes"
        }
      ],
      "name": "ComposabilityResponse",
      "type": "event"
    },
    {
      "inputs": [],
      "name": "ASSOCIATED_TOKEN_PROGRAM",
      "outputs": [
        {
          "internalType": "bytes32",
          "name": "",
          "type": "bytes32"
        }
      ],
      "stateMutability": "view",
      "type": "function"
    },
    {
      "inputs": [],
      "name": "CALL_SOLANA",
      "outputs": [
        {
          "internalType": "contract ICallSolana",
          "name": "",
          "type": "address"
        }
      ],
      "stateMutability": "view",
      "type": "function"
    },
    {
      "inputs": [],
      "name": "JUPITER_PROGRAM",
      "outputs": [
        {
          "internalType": "bytes32",
          "name": "",
          "type": "bytes32"
        }
      ],
      "stateMutability": "view",
      "type": "function"
    },
    {
      "inputs": [],
      "name": "NEON_EVM_PROGRAM",
      "outputs": [
        {
          "internalType": "bytes32",
          "name": "",
          "type": "bytes32"
        }
      ],
      "stateMutability": "view",
      "type": "function"
    },
    {
      "inputs": [],
      "name": "ORCA_PROGRAM",
      "outputs": [
        {
          "internalType": "bytes32",
          "name": "",
          "type": "bytes32"
        }
      ],
      "stateMutability": "view",
      "type": "function"
    },
    {
      "inputs": [],
      "name": "RAYDIUM_PROGRAM",
      "outputs": [
        {
          "internalType": "bytes32",
          "name": "",
          "type": "bytes32"
        }
      ],
      "stateMutability": "view",
      "type": "function"
    },
    {
      "inputs": [],
      "name": "TOKEN_PROGRAM",
      "outputs": [
        {
          "internalType": "bytes32",
          "name": "",
          "type": "bytes32"
        }
      ],
      "stateMutability": "view",
      "type": "function"
    },
    {
      "inputs": [
        {
          "internalType": "address",
          "name": "tokenIn",
          "type": "address"
        },
        {
          "internalType": "address",
          "name": "tokenOut",
          "type": "address"
        },
        {
          "internalType": "uint64",
          "name": "amount",
          "type": "uint64"
        },
        {
          "internalType": "bytes32[]",
          "name": "programIds",
          "type": "bytes32[]"
        },
        {
          "internalType": "bytes[]",
          "name": "instructions",
          "type": "bytes[]"
        },
        {
          "internalType": "bytes[]",
          "name": "accountsDatas",
          "type": "bytes[]"
        }
      ],
      "name": "batchOrcaRaydiumSwap",
      "outputs": [],
      "stateMutability": "nonpayable",
      "type": "function"
    },
    {
      "inputs": [
        {
          "internalType": "address",
          "name": "evm_address",
          "type": "address"
        }
      ],
      "name": "getNeonAddress",
      "outputs": [
        {
          "internalType": "bytes32",
          "name": "",
          "type": "bytes32"
        }
      ],
      "stateMutability": "view",
      "type": "function"
    },
    {
      "inputs": [
        {
          "internalType": "address",
          "name": "tokenIn",
          "type": "address"
        },
        {
          "internalType": "address",
          "name": "tokenOut",
          "type": "address"
        },
        {
          "internalType": "uint64",
          "name": "amount",
          "type": "uint64"
        },
        {
          "internalType": "bytes32",
          "name": "programId",
          "type": "bytes32"
        },
        {
          "internalType": "bytes",
          "name": "instruction",
          "type": "bytes"
        },
        {
          "internalType": "bytes",
          "name": "accountsData",
          "type": "bytes"
        }
      ],
      "name": "jupiterSwap",
      "outputs": [],
      "stateMutability": "nonpayable",
      "type": "function"
    },
    {
      "inputs": [
        {
          "internalType": "address",
          "name": "tokenIn",
          "type": "address"
        },
        {
          "internalType": "address",
          "name": "tokenOut",
          "type": "address"
        },
        {
          "internalType": "uint64",
          "name": "amount",
          "type": "uint64"
        },
        {
          "internalType": "bytes32",
          "name": "programId",
          "type": "bytes32"
        },
        {
          "internalType": "bytes",
          "name": "instruction",
          "type": "bytes"
        },
        {
          "internalType": "bytes",
          "name": "accountsData",
          "type": "bytes"
        }
      ],
      "name": "orcaSwap",
      "outputs": [],
      "stateMutability": "nonpayable",
      "type": "function"
    },
    {
      "inputs": [
        {
          "internalType": "address",
          "name": "tokenIn",
          "type": "address"
        },
        {
          "internalType": "address",
          "name": "tokenOut",
          "type": "address"
        },
        {
          "internalType": "uint64",
          "name": "amount",
          "type": "uint64"
        },
        {
          "internalType": "bytes32",
          "name": "programId",
          "type": "bytes32"
        },
        {
          "internalType": "bytes",
          "name": "instruction",
          "type": "bytes"
        },
        {
          "internalType": "bytes",
          "name": "accountsData",
          "type": "bytes"
        }
      ],
      "name": "orcaTwoHopSwap",
      "outputs": [],
      "stateMutability": "nonpayable",
      "type": "function"
    },
    {
      "inputs": [
        {
          "internalType": "address",
          "name": "tokenIn",
          "type": "address"
        },
        {
          "internalType": "address",
          "name": "tokenOut",
          "type": "address"
        },
        {
          "internalType": "uint64",
          "name": "amount",
          "type": "uint64"
        },
        {
          "internalType": "bytes32",
          "name": "programId",
          "type": "bytes32"
        },
        {
          "internalType": "bytes",
          "name": "instruction",
          "type": "bytes"
        },
        {
          "internalType": "bytes",
          "name": "accountsData",
          "type": "bytes"
        }
      ],
      "name": "raydiumSwap",
      "outputs": [],
      "stateMutability": "nonpayable",
      "type": "function"
    }
  ],
  "bytecode": "0x610100346100cf57601f61286738819003918201601f19168301916001600160401b038311848410176100d4578084926080946040528339810103126100cf578051906020810151606060408301519201519260805260a05260c05260e05260405161277c90816100eb823960805181818160cc0152818161030c0152818161099b015261114e015260a0518181816101da0152818161085d015281816111ce01526113e6015260c05181818161153001526116c6015260e05181818161038d015281816108140152610a1c0152f35b600080fd5b634e487b7160e01b600052604160045260246000fdfe60a080604052600436101561001357600080fd5b60006080526080513560e01c908162b8d84914611a025750806302815ead1461155357806314c7fa8f14611517578063154d4aa514611445578063161a6e3c146114095780631d96c40b146113cd5780632cfa02761461100a5780633ae0ac9614610fce57806341ef789d146108885780638dc21a4614610837578063c481eea9146107fb578063eedb7834146100f55763f6b5abb6146100b357600080fd5b346100ef576080516003193601126100ef5760206040517f00000000000000000000000000000000000000000000000000000000000000008152f35b60805180fd5b346100ef5760c06003193601126100ef5761010e611a30565b6024359073ffffffffffffffffffffffffffffffffffffffff821682036100ef5760443567ffffffffffffffff811681036100ef5760643567ffffffffffffffff81116100ef57610163903690600401611b2e565b9060843567ffffffffffffffff81116100ef57610184903690600401611b2e565b91909260a43567ffffffffffffffff81116100ef576101a7903690600401611b2e565b96909582156107ca5788610202926101bf8789611c43565b6101cc8c8c949394611c43565b9390926101d7611c08565b967f0000000000000000000000000000000000000000000000000000000000000000968b3592611dad565b600110156107ca5761022491602061021c92013593611ccb565b949093611ccb565b909361022e611bcd565b9160409687519361023f8986611b5f565b600185526103346020601f198b01938436838a01377fffffffffffffffffffffffffffffffffffffffff0000000000000000000000008c51917f0300000000000000000000000000000000000000000000000000000000000000848401527f436f6e7472616374446174610000000000000000000000000000000000000000602184015260601b16602d820152336041820152604181526102e1606182611b5f565b8b51809381927f4a890f310000000000000000000000000000000000000000000000000000000083527f000000000000000000000000000000000000000000000000000000000000000060048401611d72565b038173ff000000000000000000000000000000000000065afa9081156107be5760805191610787575b5061036786611d8c565b528851916103758a84611b5f565b60018352366020840137601061038a83611d8c565b527f0000000000000000000000000000000000000000000000000000000000000000860361075b57805180600801806008116106d25785106100ef5787906103f360208c518381946008848401970187378101608051838201520301601f198101835282611b5f565b519020908951610424602082816104138183019687815193849201611d2a565b81010301601f198101835282611b5f565b5190200361072f578388945191826105d3575b5050509381856104709685519889976020890152868801378501918483016080518152370101608051815203601f198101835282611b5f565b8151907fc549a7af000000000000000000000000000000000000000000000000000000008252608051600483015282602483015281806104b7608051936044830190611d4d565b038160805173ff000000000000000000000000000000000000065af19081156105c75760805191610524575b7f7270760dc44bb9cfddfb9cf3d643e0e4137b0e557d50e4f1cff89d4a32472ce961051b838551918291602083526020830190611d4d565b0390a160805180f35b90503d80608051833e6105378183611b5f565b8101906020818303126100ef5780519067ffffffffffffffff82116100ef57019181601f840112156100ef5782519161056f83611bb1565b9061057c83519283611b5f565b838252602084860101116100ef576105bf61051b937f7270760dc44bb9cfddfb9cf3d643e0e4137b0e557d50e4f1cff89d4a32472ce99560208085019101611d2a565b9150916104e3565b82513d608051823e3d90fd5b809192939496979550518303610703579594929091889492608051975b828910610601575082939750610437565b91939550919395966106138183611d99565b516022810290808204602214901517156106d25780600801806008116106d257602861063f8487611d99565b5192018082116106d25761065491888d61272e565b903590602081106106a2575b50036106765760010196959391899593916105f0565b7fafea5d4c00000000000000000000000000000000000000000000000000000000608051526004608051fd5b7fffffffffffffffffffffffffffffffffffffffffffffffffffffffffffffffff9060200360031b1b168c610660565b7f4e487b71000000000000000000000000000000000000000000000000000000006080515260116004526024608051fd5b7f9f02294300000000000000000000000000000000000000000000000000000000608051526004608051fd5b7fd8c48f6800000000000000000000000000000000000000000000000000000000608051526004608051fd5b7fd8ede5a000000000000000000000000000000000000000000000000000000000608051526004608051fd5b90506020813d6020116107b6575b816107a260209383611b5f565b810103126107b157518a61035d565b600080fd5b3d9150610795565b8a513d608051823e3d90fd5b7f4e487b71000000000000000000000000000000000000000000000000000000006080515260326004526024608051fd5b346100ef576080516003193601126100ef5760206040517f00000000000000000000000000000000000000000000000000000000000000008152f35b346100ef5761088261084836611a81565b9461085a979697949194939293611c08565b977f000000000000000000000000000000000000000000000000000000000000000097611dad565b60805180f35b346100ef5761089636611a81565b90956108a497939597611bcd565b936040988951956108b58b88611b5f565b60018752601f198b0190813660208a01376109c360208d8051907f0300000000000000000000000000000000000000000000000000000000000000838301527f436f6e747261637444617461000000000000000000000000000000000000000060218301527fffffffffffffffffffffffffffffffffffffffff00000000000000000000000073ffffffffffffffffffffffffffffffffffffffff8a169960601b16602d83015233604183015260418252610971606183611b5f565b51809381927f4a890f310000000000000000000000000000000000000000000000000000000083527f000000000000000000000000000000000000000000000000000000000000000060048401611d72565b038173ff000000000000000000000000000000000000065afa908115610fc25760805191610f90575b506109f689611d8c565b528b5191610a048d84611b5f565b600183523660208401376010610a1983611d8c565b527f0000000000000000000000000000000000000000000000000000000000000000890361075b57805180600801806008116106d25788106100ef578a90610a8260208f518381946008848401970187378101608051838201520301601f198101835282611b5f565b519020908c51610aa2602082816104138183019687815193849201611d2a565b5190200361072f57868b97519182610eb6575b50505067ffffffffffffffff169081610b01575050509381856104709685519889976020890152868801378501918483016080518152370101608051815203601f198101835282611b5f565b73ffffffffffffffffffffffffffffffffffffffff919295501690813b156100ef5788517f23b872dd00000000000000000000000000000000000000000000000000000000815233600482015230602482015281604482015260805181606481608051875af180156107be57610e9d575b508851907f154d4aa500000000000000000000000000000000000000000000000000000000825230600483015260208260248173ff000000000000000000000000000000000000065afa9182156107be5760805192610e69575b5089517faf25c077000000000000000000000000000000000000000000000000000000008152602081600481875afa908115610e5d5760805191610e29575b50610cb3926020918c5191838301527f06ddf6e1d765a193d9cbe146ceeb79ac1cb485ed5f5b37913a8cf5857eff00a98d830152606082015260608152610c53608082611b5f565b8b805194859283927f4a890f310000000000000000000000000000000000000000000000000000000084527f8c97258f4e2489f1bb3d1029148e0d830b5a1399daff1084048e7bd8dbe9f859600485015260248401526044830190611d4d565b038173ff000000000000000000000000000000000000065afa9182156107be5760805192610df4575b5060446020928b5194859384927faf554c5b00000000000000000000000000000000000000000000000000000000845260048401526024830152608051905af18015610de857610daf575b50823b156100ef5786928351907fa9059cbb00000000000000000000000000000000000000000000000000000000825233600483015260805160248301528160448160805193608051905af18015610da357610d85575b8080610437565b610d9491935060805190611b5f565b6080516100ef57859187610d7e565b84513d608051823e3d90fd5b6020813d602011610de0575b81610dc860209383611b5f565b810103126100ef57518015158114610d275760805180fd5b3d9150610dbb565b88513d608051823e3d90fd5b91506020823d602011610e21575b81610e0f60209383611b5f565b810103126107b1579051906044610cdc565b3d9150610e02565b90506020813d602011610e55575b81610e4460209383611b5f565b810103126107b15751610cb3610c0b565b3d9150610e37565b8b513d608051823e3d90fd5b9091506020813d602011610e95575b81610e8560209383611b5f565b810103126107b15751908a610bcc565b3d9150610e78565b608051610ea991611b5f565b6080516100ef5789610b72565b8091929394959697985051830361070357908b979695949392916080515b838110610ee15750610ab5565b90919293949596979850610ef58183611d99565b516022810290808204602214901517156106d25780600801806008116106d257610f1f8386611d99565b51916028810182116106d257610f3c918f9160288d91019261272e565b90359060208110610f60575b500361067657600101908c9897969594939291610ed4565b7fffffffffffffffffffffffffffffffffffffffffffffffffffffffffffffffff9060200360031b1b168f610f48565b90506020813d602011610fba575b81610fab60209383611b5f565b810103126107b157518d6109ec565b3d9150610f9e565b8d513d608051823e3d90fd5b346100ef576080516003193601126100ef5760206040517f06ddf6e1d765a193d9cbe146ceeb79ac1cb485ed5f5b37913a8cf5857eff00a98152f35b346100ef5761101836611a81565b90956000959395506040978851946110308a87611b5f565b600886528960208701967fc360ed6c44a2dbe6000000000000000000000000000000000000000000000000885281519761106a838a611b5f565b60018952601f198301803660208c0137611176602085517f0300000000000000000000000000000000000000000000000000000000000000828201527f436f6e747261637444617461000000000000000000000000000000000000000060218201527fffffffffffffffffffffffffffffffffffffffff00000000000000000000000073ffffffffffffffffffffffffffffffffffffffff8b169a60601b16602d82015233604182015260418152611123606182611b5f565b8651809381927f4a890f310000000000000000000000000000000000000000000000000000000083527f000000000000000000000000000000000000000000000000000000000000000060048401611d72565b038173ff000000000000000000000000000000000000065afa9081156113c1576080519161138c575b506111a98b611d8c565b526111b684519485611b5f565b6001845236602085013760086111cb84611d8c565b527f00000000000000000000000000000000000000000000000000000000000000008a0361075b5781519182600801806008116106d25789106100ef5761125460208f948e9061123b8388518381946008848401970187378101608051838201520301601f198101835282611b5f565b5190209451809361041383830196879251928391611d2a565b5190200361072f57868b975191826112b25750505067ffffffffffffffff169081610b01575050509381856104709685519889976020890152868801378501918483016080518152370101608051815203601f198101835282611b5f565b8091929394959697985051830361070357908b979695949392916080515b8381106112dd5750610ab5565b909192939495969798506112f18183611d99565b516022810290808204602214901517156106d25780600801806008116106d25761131b8386611d99565b51916028810182116106d257611338918f9160288d91019261272e565b9035906020811061135c575b500361067657600101908c98979695949392916112d0565b7fffffffffffffffffffffffffffffffffffffffffffffffffffffffffffffffff9060200360031b1b168f611344565b9450506020843d6020116113b9575b816113a860209383611b5f565b810103126107b1578d93518f61119f565b3d915061139b565b85513d608051823e3d90fd5b346100ef576080516003193601126100ef5760206040517f00000000000000000000000000000000000000000000000000000000000000008152f35b346100ef576080516003193601126100ef5760206040517f8c97258f4e2489f1bb3d1029148e0d830b5a1399daff1084048e7bd8dbe9f8598152f35b346100ef5760206003193601126100ef5761145e611a30565b73ffffffffffffffffffffffffffffffffffffffff604051917f154d4aa500000000000000000000000000000000000000000000000000000000835216600482015260208160248173ff000000000000000000000000000000000000065afa801561150a57608051906114d7575b602090604051908152f35b506020813d602011611502575b816114f160209383611b5f565b810103126107b157602090516114cc565b3d91506114e4565b6040513d608051823e3d90fd5b346100ef576080516003193601126100ef5760206040517f00000000000000000000000000000000000000000000000000000000000000008152f35b346100ef5761156136611a81565b60408051909892979496909491929061157a8a87611b5f565b600886527fe517cb977ae3ad2a000000000000000000000000000000000000000000000000602087019081528a51968b916115b5838a611b5f565b60018952601f198301803660208c013761166e602085517f0300000000000000000000000000000000000000000000000000000000000000828201527f436f6e747261637444617461000000000000000000000000000000000000000060218201527fffffffffffffffffffffffffffffffffffffffff00000000000000000000000073ffffffffffffffffffffffffffffffffffffffff8b169a60601b16602d82015233604182015260418152611123606182611b5f565b038173ff000000000000000000000000000000000000065afa9081156113c157608051916119cd575b506116a18b611d8c565b526116ae84519485611b5f565b6001845236602085013760046116c384611d8c565b527f00000000000000000000000000000000000000000000000000000000000000008a0361075b5781519182600801806008116106d25789106100ef5761173360208f948e9061123b8388518381946008848401970187378101608051838201520301601f198101835282611b5f565b5190200361072f57868b975191826118f3575b50505067ffffffffffffffff169081611792575050509381856104709685519889976020890152868801378501918483016080518152370101608051815203601f198101835282611b5f565b73ffffffffffffffffffffffffffffffffffffffff919295501690813b156100ef5788517f23b872dd00000000000000000000000000000000000000000000000000000000815233600482015230602482015281604482015260805181606481608051875af180156107be576118e157508851907f154d4aa500000000000000000000000000000000000000000000000000000000825230600483015260208260248173ff000000000000000000000000000000000000065afa9182156107be5760805192610e69575089517faf25c077000000000000000000000000000000000000000000000000000000008152602081600481875afa908115610e5d5760805191610e295750610cb3926020918c5191838301527f06ddf6e1d765a193d9cbe146ceeb79ac1cb485ed5f5b37913a8cf5857eff00a98d830152606082015260608152610c53608082611b5f565b6080516118ed91611b5f565b89610b72565b8091929394959697985051830361070357908b979695949392916080515b83811061191e5750611746565b909192939495969798506119328183611d99565b516022810290808204602214901517156106d25780600801806008116106d25761195c8386611d99565b51916028810182116106d257611979918f9160288d91019261272e565b9035906020811061199d575b500361067657600101908c9897969594939291611911565b7fffffffffffffffffffffffffffffffffffffffffffffffffffffffffffffffff9060200360031b1b168f611985565b9450506020843d6020116119fa575b816119e960209383611b5f565b810103126100ef578d93518f611697565b3d91506119dc565b346100ef576080516003193601126100ef578073ff0000000000000000000000000000000000000660209252f35b6004359073ffffffffffffffffffffffffffffffffffffffff821682036107b157565b9181601f840112156107b15782359167ffffffffffffffff83116107b157602083818601950101116107b157565b60c06003198201126107b15760043573ffffffffffffffffffffffffffffffffffffffff811681036107b1579160243573ffffffffffffffffffffffffffffffffffffffff811681036107b1579160443567ffffffffffffffff811681036107b157916064359160843567ffffffffffffffff81116107b15781611b0791600401611a53565b9290929160a4359067ffffffffffffffff82116107b157611b2a91600401611a53565b9091565b9181601f840112156107b15782359167ffffffffffffffff83116107b1576020808501948460051b0101116107b157565b90601f601f19910116810190811067ffffffffffffffff821117611b8257604052565b7f4e487b7100000000000000000000000000000000000000000000000000000000600052604160045260246000fd5b67ffffffffffffffff8111611b8257601f01601f191660200190565b60405190611bdc604083611b5f565b600482527f09a08601000000000000000000000000000000000000000000000000000000006020830152565b60405190611c17604083611b5f565b600882527ff8c69e91e17587c80000000000000000000000000000000000000000000000006020830152565b9015611c9c578035907fffffffffffffffffffffffffffffffffffffffffffffffffffffffffffffffe1813603018212156107b157019081359167ffffffffffffffff83116107b15760200182360381136107b1579190565b7f4e487b7100000000000000000000000000000000000000000000000000000000600052603260045260246000fd5b9060011015611c9c576020810135907fffffffffffffffffffffffffffffffffffffffffffffffffffffffffffffffe1813603018212156107b157019081359167ffffffffffffffff83116107b15760200182360381136107b1579190565b60005b838110611d3d5750506000910152565b8181015183820152602001611d2d565b90601f19601f602093611d6b81518092818752878088019101611d2a565b0116010190565b604090611d89939281528160208201520190611d4d565b90565b805115611c9c5760200190565b8051821015611c9c5760209160051b010190565b90919692959660009860409a8b5191611dc68d84611b5f565b60018352601f198d01611e8060208f8336838901378051907f0300000000000000000000000000000000000000000000000000000000000000838301527f436f6e747261637444617461000000000000000000000000000000000000000060218301527fffffffffffffffffffffffffffffffffffffffff00000000000000000000000073ffffffffffffffffffffffffffffffffffffffff8c169b60601b16602d83015233604183015260418252610971606183611b5f565b038173ff000000000000000000000000000000000000065afa90811561272357908f95949392918f80926126e1575b5050611eba85611d8c565b52611ec785519586611b5f565b600185523660208601376005611edc85611d8c565b528a036126b95780518060080180600811612638578a106126b5578c611f258f8b936020915193818592600885850198018837820190838201520301601f198101835282611b5f565b519020908d51611f45602082816104138183019687815193849201611d2a565b5190200361268d57918a9897959391838d9896945191826124d1575b50505067ffffffffffffffff169081612112575b5050509183918184611ff0999795611fb1975198899760208901528688013785019184830189815237010184815203601f198101835282611b5f565b8451809381927fc549a7af0000000000000000000000000000000000000000000000000000000083528460048401528760248401526044830190611d4d565b03818373ff000000000000000000000000000000000000065af1918215612107578092612057575b5050612052907f7270760dc44bb9cfddfb9cf3d643e0e4137b0e557d50e4f1cff89d4a32472ce99251918291602083526020830190611d4d565b0390a1565b9091503d8082843e6120698184611b5f565b8201916020818403126120ff5780519067ffffffffffffffff8211612103570182601f820112156120ff578051916120a083611bb1565b936120ad86519586611b5f565b838552602084840101116120fc5750916120f37f7270760dc44bb9cfddfb9cf3d643e0e4137b0e557d50e4f1cff89d4a32472ce994926120529460208085019101611d2a565b91819350612018565b80fd5b5080fd5b8280fd5b8351903d90823e3d90fd5b90929496975073ffffffffffffffffffffffffffffffffffffffff919395501690813b156124cd5789517f23b872dd000000000000000000000000000000000000000000000000000000008152336004820152306024820152816044820152898160648183875af1801561243b576124b9575b508951907f154d4aa500000000000000000000000000000000000000000000000000000000825230600483015260208260248173ff000000000000000000000000000000000000065afa91821561243b578a92612485575b508a517faf25c077000000000000000000000000000000000000000000000000000000008152602081600481875afa90811561247b578c908c92612445575b50926020917f06ddf6e1d765a193d9cbe146ceeb79ac1cb485ed5f5b37913a8cf5857eff00a9856122c496519385850152830152606082015260608152612264608082611b5f565b8c805194859283927f4a890f310000000000000000000000000000000000000000000000000000000084527f8c97258f4e2489f1bb3d1029148e0d830b5a1399daff1084048e7bd8dbe9f859600485015260248401526044830190611d4d565b038173ff000000000000000000000000000000000000065afa91821561243b578a92612406575b5060446020928b8d5195869485937faf554c5b000000000000000000000000000000000000000000000000000000008552600485015260248401525af180156123fc576123c4575b50803b156123c05786809160448a51809481937fa9059cbb0000000000000000000000000000000000000000000000000000000083523360048401528160248401525af180156123b6579188939188969593612391575b8080611f75565b86929450956123a291939596611b5f565b6123b2579186918694933861238a565b8580fd5b88513d89823e3d90fd5b8680fd5b6020813d6020116123f4575b816123dd60209383611b5f565b810103126123f057518015158114612333575b8780fd5b3d91506123d0565b89513d8a823e3d90fd5b91506020823d602011612433575b8161242160209383611b5f565b810103126107b15790519060446122eb565b3d9150612414565b8b513d8c823e3d90fd5b9150506020813d602011612473575b8161246160209383611b5f565b810103126107b157518b6122c461221c565b3d9150612454565b8c513d8d823e3d90fd5b9091506020813d6020116124b1575b816124a160209383611b5f565b810103126107b1575190386121dd565b3d9150612494565b896124c6919a929a611b5f565b9738612185565b8880fd5b91939597999a5091939597508051830361266557918c979593918c9a999795938b5b8381106125005750611f61565b81612518929496989a9c9d5081939597999b50611d99565b5160228102908082046022149015171561263857806008018060081161260b5760286125448487611d99565b519201908181116125dd578f918f918c61255d9361272e565b91503590602081106125ad575b500361258557600101918c9a99979593918e999795936124f3565b60048d7fafea5d4c000000000000000000000000000000000000000000000000000000008152fd5b7fffffffffffffffffffffffffffffffffffffffffffffffffffffffffffffffff9060200360031b1b163861256a565b5060248f7f4e487b710000000000000000000000000000000000000000000000000000000081526011600452fd5b60248f7f4e487b710000000000000000000000000000000000000000000000000000000081526011600452fd5b60248e7f4e487b710000000000000000000000000000000000000000000000000000000081526011600452fd5b60048c7f9f022943000000000000000000000000000000000000000000000000000000008152fd5b60048b7fd8c48f68000000000000000000000000000000000000000000000000000000008152fd5b8c80fd5b60048c7fd8ede5a0000000000000000000000000000000000000000000000000000000008152fd5b819394959697506020809350903d841161271b575b6127008284611b5f565b508101031261271757908e9493929151388f611eaf565b8d80fd5b3d91506126f6565b508e513d8f823e3d90fd5b909392938483116107b15784116107b157810192039056fea26469706673582212200ca5b40b99894c2eca43f1c84ad90aefb90e02425f0efe568f007ef307c9db9b64736f6c634300081a0033",
  "linkReferences": {},
  "deployedLinkReferences": {}
}