{
  "_format": "hh-sol-artifact-1",
  "contractName": "TestReadPythPriceFeed",
  "sourceName": "contracts/TestReadSolanaData/TestReadPythPriceFeed.sol",
  "abi": [
    {
      "inputs": [
        {
          "internalType": "bytes32",
          "name": "solanaAddress",
          "type": "bytes32"
        }
      ],
      "name": "readSolanaDataAccountLen",
      "outputs": [
        {
          "internalType": "uint256",
          "name": "",
          "type": "uint256"
        }
      ],
      "stateMutability": "view",
      "type": "function"
    },
    {
      "inputs": [
        {
          "internalType": "bytes32",
          "name": "solanaAddress",
          "type": "bytes32"
        },
        {
          "internalType": "uint64",
          "name": "offset",
          "type": "uint64"
        },
        {
          "internalType": "uint64",
          "name": "len",
          "type": "uint64"
        }
      ],
      "name": "readSolanaDataAccountRaw",
      "outputs": [
        {
          "internalType": "bytes",
          "name": "",
          "type": "bytes"
        }
      ],
      "stateMutability": "view",
      "type": "function"
    },
    {
      "inputs": [
        {
          "internalType": "bytes32",
          "name": "solanaAddress",
          "type": "bytes32"
        },
        {
          "internalType": "uint64",
          "name": "offset",
          "type": "uint64"
        },
        {
          "internalType": "uint64",
          "name": "len",
          "type": "uint64"
        }
      ],
      "name": "readSolanaPythPriceFeed",
      "outputs": [
        {
          "internalType": "int64",
          "name": "",
          "type": "int64"
        },
        {
          "internalType": "uint64",
          "name": "",
          "type": "uint64"
        },
        {
          "internalType": "uint32",
          "name": "",
          "type": "uint32"
        }
      ],
      "stateMutability": "view",
      "type": "function"
    }
  ],
  "bytecode": "0x60808060405234601557610693908161001b8239f35b600080fdfe6080604052600436101561001257600080fd5b60003560e01c806339b1e7a414610047578063630f4390146100425763c0504d251461003d57600080fd5b6101d9565b61014b565b346100ec5760207ffffffffffffffffffffffffffffffffffffffffffffffffffffffffffffffffc3601126100ec576004357faa8b99d20000000000000000000000000000000000000000000000000000000060a05260a45260246080526100af6044610478565b602060008060805160a073ff000000000000000000000000000000000000025afa6100e4826100dc610500565b0151916103e4565b604051908152f35b600080fd5b7ffffffffffffffffffffffffffffffffffffffffffffffffffffffffffffffffc60609101126100ec576004359060243567ffffffffffffffff811681036100ec579060443567ffffffffffffffff811681036100ec5790565b346100ec5761016c61016561015f366100f1565b9161055e565b91906103e4565b60405190602082528181519182602083015260005b8381106101c15750507fffffffffffffffffffffffffffffffffffffffffffffffffffffffffffffffe0601f836000604080968601015201168101030190f35b60208282018101516040878401015285935001610181565b346100ec576101ed61016561015f366100f1565b60d8815110610386578061038260d867ffffffffffffffff93015166ff00ff00ff00ff61024267ff00ff00ff00ff006102318467ffffffffffffff009060081b1690565b169260081c66ffffffffffffff1690565b1617601081811b67ffff0000ffff0000169165ffff0000ffff9165ffffffffffff91901c1616179163ffffffff61028e602085901b67ffffffff00000000169460201c63ffffffff1690565b169061034a61032061031a6102a2846105df565b67ffffffffffffff0066ff00ff00ff00ff66ffffffffffffff67ff00ff00ff00ff00841660081c16921660081b161767ffffffffffff000065ffff0000ffff65ffffffffffff67ffff0000ffff0000841660101c16921660101b161767ffffffff0000000063ffffffff8260201c169160201b161790565b926105ef565b600881811b63ff00ff001691901c62ff00ff1617601081811b63ffff00001691901c61ffff161790565b91604051958695161760070b8491604091949367ffffffffffffffff63ffffffff92606086019760070b865216602085015216910152565b0390f35b60646040517f08c379a000000000000000000000000000000000000000000000000000000000815260206004820152601460248201527f746f55696e7436345f6f75744f66426f756e64730000000000000000000000006044820152fd5b156103eb57565b60646040517f08c379a000000000000000000000000000000000000000000000000000000000815260206004820152601c60248201527f6661696c656420746f207175657279206163636f756e742064617461000000006044820152fd5b7f4e487b7100000000000000000000000000000000000000000000000000000000600052604160045260246000fd5b601f7fffffffffffffffffffffffffffffffffffffffffffffffffffffffffffffffe09101166080016080811067ffffffffffffffff8211176104ba57604052565b610449565b90601f7fffffffffffffffffffffffffffffffffffffffffffffffffffffffffffffffe0910116810190811067ffffffffffffffff8211176104ba57604052565b3d15610559573d9067ffffffffffffffff82116104ba576040519161054d60207fffffffffffffffffffffffffffffffffffffffffffffffffffffffffffffffe0601f84011601846104bf565b82523d6000602084013e565b606090565b6000929167ffffffffffffffff8493816040519360208501957f43ca51610000000000000000000000000000000000000000000000000000000087526024860152166044840152166064820152606481526105ba6084826104bf565b519073ff000000000000000000000000000000000000025afa906105dc610500565b90565b60d08151106103865760d0015190565b60048151106105ff5760e4015190565b60646040517f08c379a000000000000000000000000000000000000000000000000000000000815260206004820152601460248201527f746f55696e7433325f6f75744f66426f756e64730000000000000000000000006044820152fdfea26469706673582212207cd7a793309495273af983a87cfc5cedb7c258accec7dc92a769551c0a3e928364736f6c634300081a0033",
  "linkReferences": {},
  "deployedLinkReferences": {}
}