{
  "_format": "hh-sol-artifact-1",
  "contractName": "TestCreateRaydiumPool",
  "sourceName": "contracts/TestCallSolana/TestCreateRaydiumPool.sol",
  "abi": [
    {
      "inputs": [
        {
          "internalType": "address",
          "name": "initialOwner",
          "type": "address"
        },
        {
          "internalType": "bytes32",
          "name": "_NEON_EVM_PROGRAM",
          "type": "bytes32"
        },
        {
          "internalType": "bytes32",
          "name": "_RAYDIUM_PROGRAM",
          "type": "bytes32"
        }
      ],
      "stateMutability": "nonpayable",
      "type": "constructor"
    },
    {
      "inputs": [
        {
          "internalType": "address",
          "name": "owner",
          "type": "address"
        }
      ],
      "name": "OwnableInvalidOwner",
      "type": "error"
    },
    {
      "inputs": [
        {
          "internalType": "address",
          "name": "account",
          "type": "address"
        }
      ],
      "name": "OwnableUnauthorizedAccount",
      "type": "error"
    },
    {
      "anonymous": false,
      "inputs": [
        {
          "indexed": false,
          "internalType": "bytes",
          "name": "response",
          "type": "bytes"
        }
      ],
      "name": "ComposabilityResponse",
      "type": "event"
    },
    {
      "anonymous": false,
      "inputs": [
        {
          "indexed": true,
          "internalType": "address",
          "name": "previousOwner",
          "type": "address"
        },
        {
          "indexed": true,
          "internalType": "address",
          "name": "newOwner",
          "type": "address"
        }
      ],
      "name": "OwnershipTransferred",
      "type": "event"
    },
    {
      "inputs": [],
      "name": "ASSOCIATED_TOKEN_PROGRAM",
      "outputs": [
        {
          "internalType": "bytes32",
          "name": "",
          "type": "bytes32"
        }
      ],
      "stateMutability": "view",
      "type": "function"
    },
    {
      "inputs": [],
      "name": "CALL_SOLANA",
      "outputs": [
        {
          "internalType": "contract ICallSolana",
          "name": "",
          "type": "address"
        }
      ],
      "stateMutability": "view",
      "type": "function"
    },
    {
      "inputs": [],
      "name": "NEON_EVM_PROGRAM",
      "outputs": [
        {
          "internalType": "bytes32",
          "name": "",
          "type": "bytes32"
        }
      ],
      "stateMutability": "view",
      "type": "function"
    },
    {
      "inputs": [],
      "name": "RAYDIUM_PROGRAM",
      "outputs": [
        {
          "internalType": "bytes32",
          "name": "",
          "type": "bytes32"
        }
      ],
      "stateMutability": "view",
      "type": "function"
    },
    {
      "inputs": [],
      "name": "TOKEN_PROGRAM",
      "outputs": [
        {
          "internalType": "bytes32",
          "name": "",
          "type": "bytes32"
        }
      ],
      "stateMutability": "view",
      "type": "function"
    },
    {
      "inputs": [
        {
          "internalType": "uint64",
          "name": "lamports",
          "type": "uint64"
        },
        {
          "internalType": "bytes32",
          "name": "programId",
          "type": "bytes32"
        },
        {
          "internalType": "bytes",
          "name": "instruction",
          "type": "bytes"
        },
        {
          "internalType": "bytes",
          "name": "accountsData",
          "type": "bytes"
        }
      ],
      "name": "_executeComposabilityRequest",
      "outputs": [],
      "stateMutability": "nonpayable",
      "type": "function"
    },
    {
      "inputs": [
        {
          "internalType": "address",
          "name": "token1",
          "type": "address"
        },
        {
          "internalType": "address",
          "name": "token2",
          "type": "address"
        },
        {
          "internalType": "uint64",
          "name": "amount1",
          "type": "uint64"
        },
        {
          "internalType": "uint64",
          "name": "amount2",
          "type": "uint64"
        },
        {
          "internalType": "bytes[]",
          "name": "instructions",
          "type": "bytes[]"
        },
        {
          "internalType": "bytes[]",
          "name": "accountsDatas",
          "type": "bytes[]"
        }
      ],
      "name": "createRaydiumPool",
      "outputs": [],
      "stateMutability": "nonpayable",
      "type": "function"
    },
    {
      "inputs": [
        {
          "internalType": "bytes32",
          "name": "svm_address",
          "type": "bytes32"
        },
        {
          "internalType": "bytes32",
          "name": "mint",
          "type": "bytes32"
        }
      ],
      "name": "getAssociateTokenAccount",
      "outputs": [
        {
          "internalType": "bytes32",
          "name": "",
          "type": "bytes32"
        }
      ],
      "stateMutability": "view",
      "type": "function"
    },
    {
      "inputs": [
        {
          "internalType": "address",
          "name": "evm_address",
          "type": "address"
        }
      ],
      "name": "getNeonAddress",
      "outputs": [
        {
          "internalType": "bytes32",
          "name": "",
          "type": "bytes32"
        }
      ],
      "stateMutability": "view",
      "type": "function"
    },
    {
      "inputs": [
        {
          "internalType": "address",
          "name": "token",
          "type": "address"
        },
        {
          "internalType": "address",
          "name": "evm_address",
          "type": "address"
        }
      ],
      "name": "getNeonArbitraryTokenAccount",
      "outputs": [
        {
          "internalType": "bytes32",
          "name": "",
          "type": "bytes32"
        }
      ],
      "stateMutability": "view",
      "type": "function"
    },
    {
      "inputs": [],
      "name": "owner",
      "outputs": [
        {
          "internalType": "address",
          "name": "",
          "type": "address"
        }
      ],
      "stateMutability": "view",
      "type": "function"
    },
    {
      "inputs": [],
      "name": "renounceOwnership",
      "outputs": [],
      "stateMutability": "nonpayable",
      "type": "function"
    },
    {
      "inputs": [
        {
          "internalType": "address",
          "name": "newOwner",
          "type": "address"
        }
      ],
      "name": "transferOwnership",
      "outputs": [],
      "stateMutability": "nonpayable",
      "type": "function"
    }
  ],
  "bytecode": "0x60c0346100f357601f61119638819003918201601f19168301916001600160401b038311848410176100f8578084926060946040528339810103126100f35780516001600160a01b03811691908290036100f357604060208201519101519082156100dd57600080546001600160a01b031981168517825560405194916001600160a01b03909116907f8be0079c531659141344cd1fd0a4f28419497f9722a3daafe3b4186f6b6457e09080a360805260a052611087908161010f823960805181818160c501526102f1015260a0518181816101d901526106d10152f35b631e4fbdf760e01b600052600060045260246000fd5b600080fd5b634e487b7160e01b600052604160045260246000fdfe608080604052600436101561001357600080fd5b60003560e01c908162b8d84914610cb657508063154d4aa514610c26578063161a6e3c14610beb5780631da1e2a214610bc25780633876e2f814610abe5780633ae0ac9614610a83578063715018a614610a055780638718fb82146103cb5780638da5cb5b14610397578063a22a0f95146101fc578063c481eea9146101c1578063f2fde38b146100ed5763f6b5abb6146100ad57600080fd5b346100e85760006003193601126100e85760206040517f00000000000000000000000000000000000000000000000000000000000000008152f35b600080fd5b346100e85760206003193601126100e85773ffffffffffffffffffffffffffffffffffffffff61011b610ce3565b610123611002565b1680156101925773ffffffffffffffffffffffffffffffffffffffff600054827fffffffffffffffffffffffff0000000000000000000000000000000000000000821617600055167f8be0079c531659141344cd1fd0a4f28419497f9722a3daafe3b4186f6b6457e0600080a3005b7f1e4fbdf700000000000000000000000000000000000000000000000000000000600052600060045260246000fd5b346100e85760006003193601126100e85760206040517f00000000000000000000000000000000000000000000000000000000000000008152f35b346100e85760406003193601126100e857610326602061021a610ce3565b73ffffffffffffffffffffffffffffffffffffffff610237610d06565b7fffffffffffffffffffffffffffffffffffffffff000000000000000000000000604051937f0300000000000000000000000000000000000000000000000000000000000000868601527f436f6e7472616374446174610000000000000000000000000000000000000000602186015260601b16602d840152166041820152604181526102c5606182610d88565b604051809381927f4a890f310000000000000000000000000000000000000000000000000000000083527f00000000000000000000000000000000000000000000000000000000000000006004840152604060248401526044830190610e1b565b038173ff000000000000000000000000000000000000065afa801561038b57600090610358575b602090604051908152f35b506020813d602011610383575b8161037260209383610d88565b810103126100e8576020905161034d565b3d9150610365565b6040513d6000823e3d90fd5b346100e85760006003193601126100e857602073ffffffffffffffffffffffffffffffffffffffff60005416604051908152f35b346100e85760c06003193601126100e8576103e4610ce3565b6103ec610d06565b6044359067ffffffffffffffff821682036100e8576064359267ffffffffffffffff841684036100e85760843567ffffffffffffffff81116100e857610436903690600401610d57565b91909360a4359367ffffffffffffffff85116100e85761046f73ffffffffffffffffffffffffffffffffffffffff953690600401610d57565b95909361047a611002565b166040517f154d4aa500000000000000000000000000000000000000000000000000000000815230600482015260208160248173ff000000000000000000000000000000000000065afa90811561038b576000916109d3575b50604051907faf25c077000000000000000000000000000000000000000000000000000000008252602082600481865afa91821561038b57600092610999575b50916105256105739592602094610e5e565b60006040518097819582947faf554c5b0000000000000000000000000000000000000000000000000000000084526004840190929167ffffffffffffffff6020916040840195845216910152565b03925af191821561038b5773ffffffffffffffffffffffffffffffffffffffff9261097c575b50166040517f154d4aa500000000000000000000000000000000000000000000000000000000815230600482015260208160248173ff000000000000000000000000000000000000065afa90811561038b5760009161094a575b50604051907faf25c077000000000000000000000000000000000000000000000000000000008252602082600481865afa91821561038b57600092610910575b50916106456106939892602094610e5e565b6000604051809a819582947faf554c5b0000000000000000000000000000000000000000000000000000000084526004840190929167ffffffffffffffff6020916040840195845216910152565b03925af193841561038b576106c56106bd61073494604093610775996000996108e3575b50610f7a565b959093610f7a565b949092818684519788967f0000000000000000000000000000000000000000000000000000000000000000602089015286880137850191848301898152370101848152037fffffffffffffffffffffffffffffffffffffffffffffffffffffffffffffffe08101835282610d88565b604051809381927fc549a7af000000000000000000000000000000000000000000000000000000008352846004840152604060248401526044830190610e1b565b03818373ff000000000000000000000000000000000000065af190811561038b576000916107dc575b7f7270760dc44bb9cfddfb9cf3d643e0e4137b0e557d50e4f1cff89d4a32472ce96107d783604051918291602083526020830190610e1b565b0390a1005b903d8082843e6107ec8184610d88565b8201916020818403126108db5780519067ffffffffffffffff82116108df570182601f820112156108db5780519167ffffffffffffffff83116108ae576040519361085f60207fffffffffffffffffffffffffffffffffffffffffffffffffffffffffffffffe0601f8701160186610d88565b838552602084840101116108ab5750916108a46107d7927f7270760dc44bb9cfddfb9cf3d643e0e4137b0e557d50e4f1cff89d4a32472ce99460208085019101610df8565b915061079e565b80fd5b807f4e487b7100000000000000000000000000000000000000000000000000000000602492526041600452fd5b5080fd5b8280fd5b6109049060203d602011610909575b6108fc8183610d88565b810190610f62565b6106b7565b503d6108f2565b979150916020883d602011610942575b8161092d60209383610d88565b810103126100e8579651909691610645610633565b3d9150610920565b90506020813d602011610974575b8161096560209383610d88565b810103126100e85751876105f3565b3d9150610958565b6109949060203d602011610909576108fc8183610d88565b610599565b949150916020853d6020116109cb575b816109b660209383610d88565b810103126100e8579351909391610525610513565b3d91506109a9565b90506020813d6020116109fd575b816109ee60209383610d88565b810103126100e85751896104d3565b3d91506109e1565b346100e85760006003193601126100e857610a1e611002565b600073ffffffffffffffffffffffffffffffffffffffff81547fffffffffffffffffffffffff000000000000000000000000000000000000000081168355167f8be0079c531659141344cd1fd0a4f28419497f9722a3daafe3b4186f6b6457e08280a3005b346100e85760006003193601126100e85760206040517f06ddf6e1d765a193d9cbe146ceeb79ac1cb485ed5f5b37913a8cf5857eff00a98152f35b346100e85760806003193601126100e85760043567ffffffffffffffff81168091036100e85760443567ffffffffffffffff81116100e857610b04903690600401610d29565b6064359267ffffffffffffffff84116100e857610b816000936040610b30610775973690600401610d29565b959092818784519889966024356020890152868801378501918483018a8152370101858152037fffffffffffffffffffffffffffffffffffffffffffffffffffffffffffffffe08101845283610d88565b60405193849283927fc549a7af0000000000000000000000000000000000000000000000000000000084526004840152604060248401526044830190610e1b565b346100e85760406003193601126100e8576020610be3602435600435610e5e565b604051908152f35b346100e85760006003193601126100e85760206040517f8c97258f4e2489f1bb3d1029148e0d830b5a1399daff1084048e7bd8dbe9f8598152f35b346100e85760206003193601126100e857610c3f610ce3565b73ffffffffffffffffffffffffffffffffffffffff604051917f154d4aa500000000000000000000000000000000000000000000000000000000835216600482015260208160248173ff000000000000000000000000000000000000065afa801561038b5760009061035857602090604051908152f35b346100e85760006003193601126100e8578073ff0000000000000000000000000000000000000660209252f35b6004359073ffffffffffffffffffffffffffffffffffffffff821682036100e857565b6024359073ffffffffffffffffffffffffffffffffffffffff821682036100e857565b9181601f840112156100e85782359167ffffffffffffffff83116100e857602083818601950101116100e857565b9181601f840112156100e85782359167ffffffffffffffff83116100e8576020808501948460051b0101116100e857565b90601f7fffffffffffffffffffffffffffffffffffffffffffffffffffffffffffffffe0910116810190811067ffffffffffffffff821117610dc957604052565b7f4e487b7100000000000000000000000000000000000000000000000000000000600052604160045260246000fd5b60005b838110610e0b5750506000910152565b8181015183820152602001610dfb565b907fffffffffffffffffffffffffffffffffffffffffffffffffffffffffffffffe0601f602093610e5781518092818752878088019101610df8565b0116010190565b602090610f089260405191838301527f06ddf6e1d765a193d9cbe146ceeb79ac1cb485ed5f5b37913a8cf5857eff00a96040830152606082015260608152610ea7608082610d88565b604051809381927f4a890f310000000000000000000000000000000000000000000000000000000083527f8c97258f4e2489f1bb3d1029148e0d830b5a1399daff1084048e7bd8dbe9f8596004840152604060248401526044830190610e1b565b038173ff000000000000000000000000000000000000065afa90811561038b57600091610f33575090565b90506020813d602011610f5a575b81610f4e60209383610d88565b810103126100e8575190565b3d9150610f41565b908160209103126100e8575180151581036100e85790565b9015610fd3578035907fffffffffffffffffffffffffffffffffffffffffffffffffffffffffffffffe1813603018212156100e857019081359167ffffffffffffffff83116100e85760200182360381136100e8579190565b7f4e487b7100000000000000000000000000000000000000000000000000000000600052603260045260246000fd5b73ffffffffffffffffffffffffffffffffffffffff60005416330361102357565b7f118cdaa7000000000000000000000000000000000000000000000000000000006000523360045260246000fdfea26469706673582212202eb72d7b589e5d2d48e4edad37fe1c9cfbd919f8d69523b7b4450e9c0323ef6c64736f6c634300081a0033",
  "linkReferences": {},
  "deployedLinkReferences": {}
}