{
  "_format": "hh-sol-artifact-1",
  "contractName": "TestDevBootcamp",
  "sourceName": "contracts/TestCallSolana/TestDevBootcamp.sol",
  "abi": [
    {
      "inputs": [
        {
          "internalType": "address",
          "name": "_token",
          "type": "address"
        }
      ],
      "stateMutability": "nonpayable",
      "type": "constructor"
    },
    {
      "inputs": [],
      "name": "ASSOCIATED_TOKEN_PROGRAM",
      "outputs": [
        {
          "internalType": "bytes32",
          "name": "",
          "type": "bytes32"
        }
      ],
      "stateMutability": "view",
      "type": "function"
    },
    {
      "inputs": [],
      "name": "CALL_SOLANA",
      "outputs": [
        {
          "internalType": "contract ICallSolana",
          "name": "",
          "type": "address"
        }
      ],
      "stateMutability": "view",
      "type": "function"
    },
    {
      "inputs": [],
      "name": "TOKEN_PROGRAM",
      "outputs": [
        {
          "internalType": "bytes32",
          "name": "",
          "type": "bytes32"
        }
      ],
      "stateMutability": "view",
      "type": "function"
    },
    {
      "inputs": [
        {
          "internalType": "bytes32",
          "name": "owner",
          "type": "bytes32"
        },
        {
          "internalType": "bytes32",
          "name": "programId",
          "type": "bytes32"
        },
        {
          "internalType": "bytes32",
          "name": "mint",
          "type": "bytes32"
        }
      ],
      "name": "getAssociateTokenAccount",
      "outputs": [
        {
          "internalType": "bytes32",
          "name": "",
          "type": "bytes32"
        }
      ],
      "stateMutability": "view",
      "type": "function"
    },
    {
      "inputs": [
        {
          "internalType": "address",
          "name": "evm_address",
          "type": "address"
        }
      ],
      "name": "getNeonAddress",
      "outputs": [
        {
          "internalType": "bytes32",
          "name": "",
          "type": "bytes32"
        }
      ],
      "stateMutability": "view",
      "type": "function"
    },
    {
      "inputs": [],
      "name": "token",
      "outputs": [
        {
          "internalType": "address",
          "name": "",
          "type": "address"
        }
      ],
      "stateMutability": "view",
      "type": "function"
    },
    {
      "inputs": [
        {
          "internalType": "uint64",
          "name": "amount",
          "type": "uint64"
        },
        {
          "internalType": "bytes32",
          "name": "receiver",
          "type": "bytes32"
        }
      ],
      "name": "transfer",
      "outputs": [],
      "stateMutability": "nonpayable",
      "type": "function"
    }
  ],
  "bytecode": "0x60a034606d57601f610e4a38819003918201601f19168301916001600160401b03831184841017607257808492602094604052833981010312606d57516001600160a01b0381168103606d57608052604051610dc19081610089823960805181818161025c01526106660152f35b600080fd5b634e487b7160e01b600052604160045260246000fdfe6080604052600436101561001257600080fd5b60003560e01c8062b8d84914610086578063154d4aa514610081578063161a6e3c1461007c5780633ae0ac961461007757806374ee1fb514610072578063a29522601461006d5763fc0c546a1461006857600080fd5b610639565b610575565b610211565b6101d6565b61019b565b6100c5565b346100b55760006003193601126100b55773ff0000000000000000000000000000000000000660805260206080f35b600080fd5b60009103126100b557565b346100b55760206003193601126100b55760043573ffffffffffffffffffffffffffffffffffffffff81168091036100b557604051907f154d4aa5000000000000000000000000000000000000000000000000000000008252600482015260208160248173ff000000000000000000000000000000000000065afa80156101965761016391600091610167575b506040519081529081906020820190565b0390f35b610189915060203d60201161018f575b61018181836106b9565b8101906106ff565b38610152565b503d610177565b61070e565b346100b55760006003193601126100b55760206040517f8c97258f4e2489f1bb3d1029148e0d830b5a1399daff1084048e7bd8dbe9f8598152f35b346100b55760006003193601126100b55760206040517f06ddf6e1d765a193d9cbe146ceeb79ac1cb485ed5f5b37913a8cf5857eff00a98152f35b346100b55760406003193601126100b55760043567ffffffffffffffff81168082036100b55761024560243591151561071a565b73ffffffffffffffffffffffffffffffffffffffff7f000000000000000000000000000000000000000000000000000000000000000016906040517faf25c077000000000000000000000000000000000000000000000000000000008152602081600481865afa90811561019657600091610556575b506040517f154d4aa50000000000000000000000000000000000000000000000000000000081523060048201529060208260248173ff000000000000000000000000000000000000065afa801561019657816103239161032994600091610537575b506108dc565b926108dc565b91803b156100b5576040517f23b872dd00000000000000000000000000000000000000000000000000000000815233600482015230602482015267ffffffffffffffff8516604482015260008160648183865af180156101965761051c575b506040517faf554c5b0000000000000000000000000000000000000000000000000000000081526004810183905267ffffffffffffffff8516602482015290602090829060449082906000905af18015610196576104ef575b506040517f154d4aa500000000000000000000000000000000000000000000000000000000815230600482015260208160248173ff000000000000000000000000000000000000065afa9384156101965761048a946000946104579461044e9487936104ce575b50610a0a565b92919091610b6a565b604051809381927fc549a7af0000000000000000000000000000000000000000000000000000000083526004830161088d565b03818373ff000000000000000000000000000000000000065af18015610196576104b057005b6104cc903d806000833e6104c481836106b9565b8101906107ba565b005b6104e891935060203d60201161018f5761018181836106b9565b9138610448565b6105109060203d602011610515575b61050881836106b9565b81019061077f565b6103e1565b503d6104fe565b8061052b6000610531936106b9565b806100ba565b38610388565b610550915060203d60201161018f5761018181836106b9565b3861031d565b61056f915060203d60201161018f5761018181836106b9565b386102bb565b346100b55760606003193601126100b5576105e9602060043560243560443590604051928484015260408301526060820152606081526105b66080826106b9565b604051809381927f4a890f31000000000000000000000000000000000000000000000000000000008352600483016108a5565b038173ff000000000000000000000000000000000000065afa80156101965760209160009161061c575b50604051908152f35b6106339150823d841161018f5761018181836106b9565b38610613565b346100b55760006003193601126100b557602060405173ffffffffffffffffffffffffffffffffffffffff7f0000000000000000000000000000000000000000000000000000000000000000168152f35b7f4e487b7100000000000000000000000000000000000000000000000000000000600052604160045260246000fd5b90601f7fffffffffffffffffffffffffffffffffffffffffffffffffffffffffffffffe0910116810190811067ffffffffffffffff8211176106fa57604052565b61068a565b908160209103126100b5575190565b6040513d6000823e3d90fd5b1561072157565b60646040517f08c379a000000000000000000000000000000000000000000000000000000000815260206004820152601560248201527f4552524f523a20494e56414c494420414d4f554e5400000000000000000000006044820152fd5b908160209103126100b5575180151581036100b55790565b60005b8381106107aa5750506000910152565b818101518382015260200161079a565b6020818303126100b55780519067ffffffffffffffff82116100b5570181601f820112156100b557805167ffffffffffffffff81116106fa576040519261082960207fffffffffffffffffffffffffffffffffffffffffffffffffffffffffffffffe0601f85011601856106b9565b818452602082840101116100b5576108479160208085019101610797565b90565b907fffffffffffffffffffffffffffffffffffffffffffffffffffffffffffffffe0601f60209361088681518092818752878088019101610797565b0116010190565b9060406108479260008152816020820152019061084a565b906040610847927f8c97258f4e2489f1bb3d1029148e0d830b5a1399daff1084048e7bd8dbe9f8598152816020820152019061084a565b6020906109259260405191838301527f06ddf6e1d765a193d9cbe146ceeb79ac1cb485ed5f5b37913a8cf5857eff00a960408301526060820152606081526105b66080826106b9565b038173ff000000000000000000000000000000000000065afa90811561019657600091610950575090565b610847915060203d60201161018f5761018181836106b9565b7f4e487b7100000000000000000000000000000000000000000000000000000000600052603260045260246000fd5b8051156109a55760200190565b610969565b8051600110156109a55760400190565b8051600210156109a55760600190565b604051608091906109db83826106b9565b60038152917fffffffffffffffffffffffffffffffffffffffffffffffffffffffffffffffe001366020840137565b93929190610a489060405190610a216080836106b9565b6003825260603660208401378196610a3883610998565b52610a42826109aa565b526109ba565b52610a516109ca565b916000610a5d84610998565b526000610a69846109aa565b52610a7c610a76846109ba565b60019052565b610b3e6108477fffffffffffffffff000000000000000000000000000000000000000000000000610ae267ffffffffffffffff610ab76109ca565b96610ac4610a7689610998565b610ad0610a76896109aa565b6000610adb896109ba565b5216610c53565b16604051928391602083017fffffffffffffffff0000000000000000000000000000000000000000000000006009927f030000000000000000000000000000000000000000000000000000000000000083521660018201520190565b037fffffffffffffffffffffffffffffffffffffffffffffffffffffffffffffffe081018352826106b9565b92604051938051825194602282029260288401878015159586610c46575b50506020818a9895949398010160405288527f06ddf6e1d765a193d9cbe146ceeb79ac1cb485ed5f5b37913a8cf5857eff00a9602089015281604089015360488801956000935b838510610c0f575050505050610be6575b50505090565b82825360005b838110610bf95750610be0565b8060208092840101516008828601015201610bec565b9091929396602260019160208a60051b81818801015183528181870101518284015387010151602182015301970193929190610bcf565b6030925001018738610b88565b8060081c9060081b907cff000000ff000000ff000000ff000000ff000000ff000000ff000000ff7dff000000ff000000ff000000ff000000ff000000ff000000ff000000ff007fff000000ff000000ff000000ff000000ff000000ff000000ff000000ff00000084167eff000000ff000000ff000000ff000000ff000000ff000000ff000000ff000084161760101c931691161760101b177bffffffff00000000ffffffff00000000ffffffff00000000ffffffff7fffffffff00000000ffffffff00000000ffffffff00000000ffffffff00000000821660201c911660201b1777ffffffffffffffff0000000000000000ffffffffffffffff7fffffffffffffffff0000000000000000ffffffffffffffff0000000000000000821660401c911660401b17610d878160801c9160801b90565b179056fea26469706673582212207a743c809df5f9e4a19465dd4845949589320c87861080321d77a8b7503e476164736f6c634300081a0033",
  "linkReferences": {},
  "deployedLinkReferences": {}
}