{
  "_format": "hh-sol-artifact-1",
  "contractName": "TokenFactory",
  "sourceName": "contracts/MemecoinLaunchpad/TokenFactory.sol",
  "abi": [
    {
      "inputs": [
        {
          "internalType": "address",
          "name": "_erc20ForSplFactory",
          "type": "address"
        },
        {
          "internalType": "address",
          "name": "_bondingCurve",
          "type": "address"
        },
        {
          "internalType": "address",
          "name": "_wsolToken",
          "type": "address"
        },
        {
          "internalType": "uint256",
          "name": "_feePercent",
          "type": "uint256"
        }
      ],
      "stateMutability": "nonpayable",
      "type": "constructor"
    },
    {
      "inputs": [
        {
          "internalType": "address",
          "name": "owner",
          "type": "address"
        }
      ],
      "name": "OwnableInvalidOwner",
      "type": "error"
    },
    {
      "inputs": [
        {
          "internalType": "address",
          "name": "account",
          "type": "address"
        }
      ],
      "name": "OwnableUnauthorizedAccount",
      "type": "error"
    },
    {
      "inputs": [],
      "name": "ReentrancyGuardReentrantCall",
      "type": "error"
    },
    {
      "anonymous": false,
      "inputs": [
        {
          "indexed": false,
          "internalType": "bytes32",
          "name": "salt",
          "type": "bytes32"
        },
        {
          "indexed": false,
          "internalType": "uint64",
          "name": "space",
          "type": "uint64"
        },
        {
          "indexed": false,
          "internalType": "uint64",
          "name": "lamports",
          "type": "uint64"
        },
        {
          "indexed": false,
          "internalType": "bytes32",
          "name": "programId",
          "type": "bytes32"
        },
        {
          "indexed": false,
          "internalType": "bytes32",
          "name": "response",
          "type": "bytes32"
        }
      ],
      "name": "CreateResource",
      "type": "event"
    },
    {
      "anonymous": false,
      "inputs": [
        {
          "indexed": false,
          "internalType": "bytes",
          "name": "response",
          "type": "bytes"
        }
      ],
      "name": "LogData",
      "type": "event"
    },
    {
      "anonymous": false,
      "inputs": [
        {
          "indexed": true,
          "internalType": "address",
          "name": "previousOwner",
          "type": "address"
        },
        {
          "indexed": true,
          "internalType": "address",
          "name": "newOwner",
          "type": "address"
        }
      ],
      "name": "OwnershipTransferred",
      "type": "event"
    },
    {
      "anonymous": false,
      "inputs": [
        {
          "indexed": true,
          "internalType": "address",
          "name": "token",
          "type": "address"
        },
        {
          "indexed": false,
          "internalType": "uint256",
          "name": "timestamp",
          "type": "uint256"
        }
      ],
      "name": "TokenCreated",
      "type": "event"
    },
    {
      "anonymous": false,
      "inputs": [
        {
          "indexed": true,
          "internalType": "address",
          "name": "token",
          "type": "address"
        },
        {
          "indexed": false,
          "internalType": "uint256",
          "name": "timestamp",
          "type": "uint256"
        }
      ],
      "name": "TokenLiqudityAdded",
      "type": "event"
    },
    {
      "inputs": [],
      "name": "CALL_SOLANA",
      "outputs": [
        {
          "internalType": "contract ICallSolana",
          "name": "",
          "type": "address"
        }
      ],
      "stateMutability": "view",
      "type": "function"
    },
    {
      "inputs": [],
      "name": "FEE_DENOMINATOR",
      "outputs": [
        {
          "internalType": "uint256",
          "name": "",
          "type": "uint256"
        }
      ],
      "stateMutability": "view",
      "type": "function"
    },
    {
      "inputs": [],
      "name": "FUNDING_SUPPLY",
      "outputs": [
        {
          "internalType": "uint256",
          "name": "",
          "type": "uint256"
        }
      ],
      "stateMutability": "view",
      "type": "function"
    },
    {
      "inputs": [],
      "name": "INITIAL_SUPPLY",
      "outputs": [
        {
          "internalType": "uint256",
          "name": "",
          "type": "uint256"
        }
      ],
      "stateMutability": "view",
      "type": "function"
    },
    {
      "inputs": [],
      "name": "MAX_SUPPLY",
      "outputs": [
        {
          "internalType": "uint256",
          "name": "",
          "type": "uint256"
        }
      ],
      "stateMutability": "view",
      "type": "function"
    },
    {
      "inputs": [],
      "name": "TOKEN_DECIMALS",
      "outputs": [
        {
          "internalType": "uint8",
          "name": "",
          "type": "uint8"
        }
      ],
      "stateMutability": "view",
      "type": "function"
    },
    {
      "inputs": [
        {
          "internalType": "uint64[]",
          "name": "lamports",
          "type": "uint64[]"
        },
        {
          "internalType": "bytes32[]",
          "name": "salt",
          "type": "bytes32[]"
        },
        {
          "internalType": "bytes[]",
          "name": "instruction",
          "type": "bytes[]"
        }
      ],
      "name": "batchExecute",
      "outputs": [],
      "stateMutability": "nonpayable",
      "type": "function"
    },
    {
      "inputs": [],
      "name": "bondingCurve",
      "outputs": [
        {
          "internalType": "contract BondingCurve",
          "name": "",
          "type": "address"
        }
      ],
      "stateMutability": "view",
      "type": "function"
    },
    {
      "inputs": [
        {
          "internalType": "address",
          "name": "tokenAddress",
          "type": "address"
        },
        {
          "internalType": "uint256",
          "name": "wsolAmount",
          "type": "uint256"
        },
        {
          "components": [
            {
              "internalType": "uint64[]",
              "name": "lamports",
              "type": "uint64[]"
            },
            {
              "internalType": "bytes32[]",
              "name": "salt",
              "type": "bytes32[]"
            },
            {
              "internalType": "bytes[]",
              "name": "instruction",
              "type": "bytes[]"
            }
          ],
          "internalType": "struct TokenFactory.ComposabilityRequest",
          "name": "composabilityRequest",
          "type": "tuple"
        },
        {
          "components": [
            {
              "internalType": "bytes32",
              "name": "fundingTokenATA",
              "type": "bytes32"
            },
            {
              "internalType": "bytes32",
              "name": "memeTokenATA",
              "type": "bytes32"
            }
          ],
          "internalType": "struct TokenFactory.PayerTokenAccounts",
          "name": "payerTokenAccounts",
          "type": "tuple"
        }
      ],
      "name": "buy",
      "outputs": [],
      "stateMutability": "nonpayable",
      "type": "function"
    },
    {
      "inputs": [
        {
          "internalType": "address",
          "name": "tokenAddress",
          "type": "address"
        },
        {
          "internalType": "uint256",
          "name": "wsolAmount",
          "type": "uint256"
        }
      ],
      "name": "calculateBuyAmount",
      "outputs": [
        {
          "internalType": "uint256",
          "name": "amount",
          "type": "uint256"
        },
        {
          "internalType": "uint256",
          "name": "availableSupply",
          "type": "uint256"
        },
        {
          "internalType": "uint256",
          "name": "totalSupply",
          "type": "uint256"
        },
        {
          "internalType": "uint256",
          "name": "normalizedContribution",
          "type": "uint256"
        }
      ],
      "stateMutability": "view",
      "type": "function"
    },
    {
      "inputs": [],
      "name": "claimFee",
      "outputs": [],
      "stateMutability": "nonpayable",
      "type": "function"
    },
    {
      "inputs": [
        {
          "internalType": "address",
          "name": "",
          "type": "address"
        }
      ],
      "name": "collateral",
      "outputs": [
        {
          "internalType": "uint256",
          "name": "",
          "type": "uint256"
        }
      ],
      "stateMutability": "view",
      "type": "function"
    },
    {
      "inputs": [
        {
          "internalType": "bytes32",
          "name": "salt",
          "type": "bytes32"
        },
        {
          "internalType": "uint64",
          "name": "space",
          "type": "uint64"
        },
        {
          "internalType": "uint64",
          "name": "lamports",
          "type": "uint64"
        },
        {
          "internalType": "bytes32",
          "name": "program_id",
          "type": "bytes32"
        }
      ],
      "name": "createResource",
      "outputs": [
        {
          "internalType": "bytes32",
          "name": "",
          "type": "bytes32"
        }
      ],
      "stateMutability": "nonpayable",
      "type": "function"
    },
    {
      "inputs": [
        {
          "internalType": "string",
          "name": "name",
          "type": "string"
        },
        {
          "internalType": "string",
          "name": "symbol",
          "type": "string"
        }
      ],
      "name": "createToken",
      "outputs": [
        {
          "internalType": "address",
          "name": "",
          "type": "address"
        }
      ],
      "stateMutability": "nonpayable",
      "type": "function"
    },
    {
      "inputs": [],
      "name": "erc20ForSplFactory",
      "outputs": [
        {
          "internalType": "address",
          "name": "",
          "type": "address"
        }
      ],
      "stateMutability": "view",
      "type": "function"
    },
    {
      "inputs": [
        {
          "internalType": "uint64",
          "name": "lamports",
          "type": "uint64"
        },
        {
          "internalType": "bytes32",
          "name": "salt",
          "type": "bytes32"
        },
        {
          "internalType": "bytes",
          "name": "instruction",
          "type": "bytes"
        }
      ],
      "name": "execute",
      "outputs": [],
      "stateMutability": "nonpayable",
      "type": "function"
    },
    {
      "inputs": [],
      "name": "fee",
      "outputs": [
        {
          "internalType": "uint256",
          "name": "",
          "type": "uint256"
        }
      ],
      "stateMutability": "view",
      "type": "function"
    },
    {
      "inputs": [],
      "name": "feePercent",
      "outputs": [
        {
          "internalType": "uint256",
          "name": "",
          "type": "uint256"
        }
      ],
      "stateMutability": "view",
      "type": "function"
    },
    {
      "inputs": [],
      "name": "fundingGoal",
      "outputs": [
        {
          "internalType": "uint256",
          "name": "",
          "type": "uint256"
        }
      ],
      "stateMutability": "view",
      "type": "function"
    },
    {
      "inputs": [
        {
          "internalType": "bytes32",
          "name": "salt",
          "type": "bytes32"
        }
      ],
      "name": "getExtAuthority",
      "outputs": [
        {
          "internalType": "bytes32",
          "name": "",
          "type": "bytes32"
        }
      ],
      "stateMutability": "view",
      "type": "function"
    },
    {
      "inputs": [
        {
          "internalType": "address",
          "name": "_address",
          "type": "address"
        }
      ],
      "name": "getNeonAddress",
      "outputs": [
        {
          "internalType": "bytes32",
          "name": "",
          "type": "bytes32"
        }
      ],
      "stateMutability": "view",
      "type": "function"
    },
    {
      "inputs": [],
      "name": "getPayer",
      "outputs": [
        {
          "internalType": "bytes32",
          "name": "",
          "type": "bytes32"
        }
      ],
      "stateMutability": "view",
      "type": "function"
    },
    {
      "inputs": [
        {
          "internalType": "bytes32",
          "name": "salt",
          "type": "bytes32"
        }
      ],
      "name": "getResourceAddress",
      "outputs": [
        {
          "internalType": "bytes32",
          "name": "",
          "type": "bytes32"
        }
      ],
      "stateMutability": "view",
      "type": "function"
    },
    {
      "inputs": [
        {
          "internalType": "bytes32",
          "name": "program_id",
          "type": "bytes32"
        },
        {
          "internalType": "bytes",
          "name": "seeds",
          "type": "bytes"
        }
      ],
      "name": "getSolanaPDA",
      "outputs": [
        {
          "internalType": "bytes32",
          "name": "",
          "type": "bytes32"
        }
      ],
      "stateMutability": "view",
      "type": "function"
    },
    {
      "inputs": [],
      "name": "owner",
      "outputs": [
        {
          "internalType": "address",
          "name": "",
          "type": "address"
        }
      ],
      "stateMutability": "view",
      "type": "function"
    },
    {
      "inputs": [],
      "name": "renounceOwnership",
      "outputs": [],
      "stateMutability": "nonpayable",
      "type": "function"
    },
    {
      "inputs": [
        {
          "internalType": "address",
          "name": "tokenAddress",
          "type": "address"
        },
        {
          "internalType": "uint256",
          "name": "amount",
          "type": "uint256"
        }
      ],
      "name": "sell",
      "outputs": [],
      "stateMutability": "nonpayable",
      "type": "function"
    },
    {
      "inputs": [
        {
          "internalType": "address",
          "name": "_bondingCurve",
          "type": "address"
        }
      ],
      "name": "setBondingCurve",
      "outputs": [],
      "stateMutability": "nonpayable",
      "type": "function"
    },
    {
      "inputs": [
        {
          "internalType": "uint256",
          "name": "_feePercent",
          "type": "uint256"
        }
      ],
      "name": "setFeePercent",
      "outputs": [],
      "stateMutability": "nonpayable",
      "type": "function"
    },
    {
      "inputs": [
        {
          "internalType": "address",
          "name": "",
          "type": "address"
        }
      ],
      "name": "tokens",
      "outputs": [
        {
          "internalType": "enum TokenFactory.TokenState",
          "name": "",
          "type": "uint8"
        }
      ],
      "stateMutability": "view",
      "type": "function"
    },
    {
      "inputs": [
        {
          "internalType": "address",
          "name": "newOwner",
          "type": "address"
        }
      ],
      "name": "transferOwnership",
      "outputs": [],
      "stateMutability": "nonpayable",
      "type": "function"
    },
    {
      "inputs": [],
      "name": "wsolDecimals",
      "outputs": [
        {
          "internalType": "uint256",
          "name": "",
          "type": "uint256"
        }
      ],
      "stateMutability": "view",
      "type": "function"
    },
    {
      "inputs": [],
      "name": "wsolToken",
      "outputs": [
        {
          "internalType": "address",
          "name": "",
          "type": "address"
        }
      ],
      "stateMutability": "view",
      "type": "function"
    }
  ],
  "bytecode": "0x60e080604052346101c9576080816126e9803803809161001f82856101ce565b8339810103126101c95761003281610207565b9061003f60208201610207565b91606061004e60408401610207565b920151600160005533156101b35760018054336001600160a01b031982168117909255604051956020958795600495879590949293926001600160a01b03167f8be0079c531659141344cd1fd0a4f28419497f9722a3daafe3b4186f6b6457e0600080a360c052600580546001600160a01b03199081166001600160a01b03938416179091558554169116908117845560069190915563313ce56760e01b82525afa9081156101a757600091610166575b5060ff1680608052604d811161015057600a90810a0460a0526040516124cd908161021c8239608051816108b6015260a051818181610a890152611288015260c051818181611b8b0152611cce0152f35b634e487b7160e01b600052601160045260246000fd5b6020813d60201161019f575b8161017f602093836101ce565b8101031261019b575160ff8116810361019b57905060ff6100ff565b5080fd5b3d9150610172565b6040513d6000823e3d90fd5b631e4fbdf760e01b600052600060045260246000fd5b600080fd5b601f909101601f19168101906001600160401b038211908210176101f157604052565b634e487b7160e01b600052604160045260246000fd5b51906001600160a01b03821682036101c95756fe608080604052600436101561001357600080fd5b600090813560e01c908162b8d84914611d8357508063154d4aa514611cf25780632d67bb4014611ca15780632f2f2d5614611abb5780632ff2e9dc14611a9857806330aa81c6146119f557806332cb6b0c146119d1578063398adffc1461115357806343ff1fb8146110ef5780634a890f31146110445780634b5f122614610ff057806359e4ad6314610f7b5780635b7f415c14610f5f5780636c197ff514610b2c578063715018a614610aac5780637a3a0e8414610a715780637ce3489b14610a4e5780637fd6f15c14610a305780638da5cb5b146109fc57806392827585146109c857806399d32fc41461091e578063a5fdc5de146108d9578063ab5b2d8a1461089e578063b8aafbe1146107e7578063bfe60856146107c4578063cd2d1a3a1461071b578063cfd51d32146105dd578063d73792a9146105c0578063ddca3f43146105a2578063e486033914610521578063eff1d50e146104ed578063f2f2c5c41461025f5763f2fde38b1461018b57600080fd5b3461025c57602060031936011261025c5773ffffffffffffffffffffffffffffffffffffffff6101b9611db1565b6101c161222b565b1680156102305773ffffffffffffffffffffffffffffffffffffffff600154827fffffffffffffffffffffffff0000000000000000000000000000000000000000821617600155167f8be0079c531659141344cd1fd0a4f28419497f9722a3daafe3b4186f6b6457e08380a380f35b6024827f1e4fbdf700000000000000000000000000000000000000000000000000000000815280600452fd5b80fd5b503461025c57604060031936011261025c57610279611db1565b73ffffffffffffffffffffffffffffffffffffffff16906127106024358181029181159183041417156104c0576006546127100190816127101161049357906102c191611ec3565b73ffffffffffffffffffffffffffffffffffffffff60055416916040517f18160ddd000000000000000000000000000000000000000000000000000000008152602081600481885afa8015610488578290610455575b602091506044604051809681937f7cabb7cf00000000000000000000000000000000000000000000000000000000835260048301528660248301525afa928315610448578193610411575b506020600494604051958680927f18160ddd0000000000000000000000000000000000000000000000000000000082525afa90811561040557906103cd575b608093506103b6816602d79883d2000061208e565b604051938452602084015260408301526060820152f35b506020833d6020116103fd575b816103e760209383611dd4565b810103126103f857608092516103a1565b600080fd5b3d91506103da565b604051903d90823e3d90fd5b9392506020843d602011610440575b8161042d60209383611dd4565b810103126103f857925191926020610362565b3d9150610420565b50604051903d90823e3d90fd5b506020813d602011610480575b8161046f60209383611dd4565b810103126103f85760209051610317565b3d9150610462565b6040513d84823e3d90fd5b6024837f4e487b710000000000000000000000000000000000000000000000000000000081526011600452fd5b6024827f4e487b710000000000000000000000000000000000000000000000000000000081526011600452fd5b503461025c578060031936011261025c57602073ffffffffffffffffffffffffffffffffffffffff60055416604051908152f35b503461025c57602060031936011261025c5773ffffffffffffffffffffffffffffffffffffffff610550611db1565b168152600260205260ff60408220541660405190600381101561057557602092508152f35b6024837f4e487b710000000000000000000000000000000000000000000000000000000081526021600452fd5b503461025c578060031936011261025c576020600754604051908152f35b503461025c578060031936011261025c5760206040516127108152f35b503461025c57608060031936011261025c57600435906024359167ffffffffffffffff83168093036107175760443567ffffffffffffffff811680910361071357606435936040517fcfd51d320000000000000000000000000000000000000000000000000000000081528360048201528160248201528260448201528560648201526020816084818873ff000000000000000000000000000000000000065af194851561040557946106d8575b509160209460a0927f36b88b9c2053cb655d8308ef7ebff9cc6a4234459e81d7191013344a75c1eac2946040519384528784015260408301526060820152836080820152a1604051908152f35b91929093506020823d60201161070b575b816106f660209383611dd4565b810103126103f857905192909190602061068b565b3d91506106e9565b8280fd5b5080fd5b503461025c57602060031936011261025c57604051907fcd2d1a3a000000000000000000000000000000000000000000000000000000008252600435600483015260208260248173ff000000000000000000000000000000000000065afa9081156104055790610791575b602090604051908152f35b506020813d6020116107bc575b816107ab60209383611dd4565b810103126103f85760209051610786565b3d915061079e565b503461025c578060031936011261025c5760206602d79883d20000604051908152f35b503461025c57606060031936011261025c5760043567ffffffffffffffff811161071757366023820112156107175761082a903690602481600401359101611f14565b60243567ffffffffffffffff811161071357366023820112156107135761085b903690602481600401359101611f70565b906044359167ffffffffffffffff831161089a573660238401121561089a57610891610897933690602481600401359101611fbc565b91612186565b80f35b8380fd5b503461025c578060031936011261025c5760206040517f00000000000000000000000000000000000000000000000000000000000000008152f35b503461025c57602060031936011261025c57604060209173ffffffffffffffffffffffffffffffffffffffff61090d611db1565b168152600383522054604051908152f35b503461025c578060031936011261025c5761093761222b565b8073ffffffffffffffffffffffffffffffffffffffff6004541660075490803b156109c4576040517fa9059cbb000000000000000000000000000000000000000000000000000000008152336004820152602481019290925282908290604490829084905af18015610488576109af575b5060075580f35b816109b991611dd4565b61025c5780386109a8565b5050fd5b503461025c578060031936011261025c57602073ffffffffffffffffffffffffffffffffffffffff60045416604051908152f35b503461025c578060031936011261025c57602073ffffffffffffffffffffffffffffffffffffffff60015416604051908152f35b503461025c578060031936011261025c576020600654604051908152f35b503461025c57602060031936011261025c57610a6861222b565b60043560065580f35b503461025c578060031936011261025c5760206040517f00000000000000000000000000000000000000000000000000000000000000008152f35b503461025c578060031936011261025c57610ac561222b565b8073ffffffffffffffffffffffffffffffffffffffff6001547fffffffffffffffffffffffff00000000000000000000000000000000000000008116600155167f8be0079c531659141344cd1fd0a4f28419497f9722a3daafe3b4186f6b6457e08280a380f35b503461025c57604060031936011261025c57610b46611db1565b73ffffffffffffffffffffffffffffffffffffffff60243591610b676121d8565b1690818352600260205260ff6040842054166003811015610f3257600103610ed4578015610e5057829173ffffffffffffffffffffffffffffffffffffffff60055416916040517f18160ddd000000000000000000000000000000000000000000000000000000008152602081600481865afa908115610dd7578591610e19575b506020906044604051809681937f901ce73e00000000000000000000000000000000000000000000000000000000835260048301528560248301525afa928315610db2578493610de2575b50610c56610c4d610c4660065486612213565b809561208e565b936007546120ca565b600755813b15610dbd576040517f23b872dd00000000000000000000000000000000000000000000000000000000815233600482015230602482015260448101829052848160648183875af1908115610dd7578591610dc2575b5050813b15610dbd57604051907f42966c680000000000000000000000000000000000000000000000000000000082526004820152838160248183865af1908115610db2578491610d9d575b5052600360205260408220610d1282825461208e565b905573ffffffffffffffffffffffffffffffffffffffff60045416803b156109c4576040517fa9059cbb000000000000000000000000000000000000000000000000000000008152336004820152602481019290925282908290604490829084905af1801561048857610d88575b506001905580f35b81610d9291611dd4565b61025c578038610d80565b81610da791611dd4565b6109c4578238610cfc565b6040513d86823e3d90fd5b505050fd5b81610dcc91611dd4565b610dbd578338610cb0565b6040513d87823e3d90fd5b935091506020833d602011610e11575b81610dff60209383611dd4565b810103126103f8578392519138610c33565b3d9150610df2565b9450506020843d602011610e48575b81610e3560209383611dd4565b810103126103f857602085945190610be8565b3d9150610e28565b60846040517f08c379a000000000000000000000000000000000000000000000000000000000815260206004820152602260248201527f416d6f756e742073686f756c642062652067726561746572207468616e207a6560448201527f726f0000000000000000000000000000000000000000000000000000000000006064820152fd5b60646040517f08c379a000000000000000000000000000000000000000000000000000000000815260206004820152601460248201527f546f6b656e206973206e6f742066756e64696e670000000000000000000000006044820152fd5b6024847f4e487b710000000000000000000000000000000000000000000000000000000081526021600452fd5b503461025c578060031936011261025c57602060405160098152f35b503461025c57602060031936011261025c57604051907f59e4ad63000000000000000000000000000000000000000000000000000000008252600435600483015260208260248173ff000000000000000000000000000000000000065afa908115610405579061079157602090604051908152f35b503461025c57606060031936011261025c5760043567ffffffffffffffff81168103610717576044359067ffffffffffffffff82116107135761103a610897923690600401611e7e565b90602435906122dc565b503461025c57604060031936011261025c5760243567ffffffffffffffff81116107175790602061107c6110bf933690600401611e7e565b604051809481927f4a890f31000000000000000000000000000000000000000000000000000000008352600435600484015260406024840152604483019061204b565b038173ff000000000000000000000000000000000000065afa908115610405579061079157602090604051908152f35b503461025c57602060031936011261025c5773ffffffffffffffffffffffffffffffffffffffff61111e611db1565b61112661222b565b167fffffffffffffffffffffffff0000000000000000000000000000000000000000600554161760055580f35b503461025c5760a060031936011261025c5761116d611db1565b9060243560443567ffffffffffffffff81116107135780600401936060600319833603011261089a5760407fffffffffffffffffffffffffffffffffffffffffffffffffffffffffffffff9c36011261089a5773ffffffffffffffffffffffffffffffffffffffff906111de6121d8565b16808452600260205260ff60408520541660038110156119a4576001036119465782156118e85773ffffffffffffffffffffffffffffffffffffffff60045416803b156118e4576040517f23b872dd000000000000000000000000000000000000000000000000000000008152336004820152306024820152604481018590529085908290606490829084905af18015610dd7576118d0575b5080845260036020526040842054917f0000000000000000000000000000000000000000000000000000000000000000956112b2848861208e565b96612710860297868904612710036118a3576006548061271001998a6127101161187657899a6112e191611ec3565b9180831161186c575b506112f59082612213565b9661130088836120ca565b908181111561186057611320916113169161208e565b975b6007546120ca565b60075573ffffffffffffffffffffffffffffffffffffffff60055416956040517f18160ddd0000000000000000000000000000000000000000000000000000000081526020816004818a5afa908115611855578a9161181e575b506020906044604051809a81937f7cabb7cf00000000000000000000000000000000000000000000000000000000835260048301528660248301525afa9687156118135789976117d8575b50906113d0916120ca565b94843b156117d4576040517f40c10f190000000000000000000000000000000000000000000000000000000081523360048201526024810191909152878160448183895af190811561177e5788916117bf575b50508410156114be575b50508352600360205260408320558061144857506001905580f35b73ffffffffffffffffffffffffffffffffffffffff60045416803b156109c4576040517fa9059cbb000000000000000000000000000000000000000000000000000000008152336004820152602481019290925282908290604490829084905af180156104885715610d805781610d9291611dd4565b65b5e620f48000833b156117bb576040517f40c10f1900000000000000000000000000000000000000000000000000000000815230600482015260248101829052878160448183895af190811561177e5788916117a6575b50506040517faf554c5b000000000000000000000000000000000000000000000000000000008152608435600482015267ffffffffffffffff9190911660248201526020816044818a885af1801561172e57611789575b5073ffffffffffffffffffffffffffffffffffffffff600454166040517f70a08231000000000000000000000000000000000000000000000000000000008152306004820152602081602481855afa90811561177e578891611739575b5067ffffffffffffffff6116379493926115e68960209461208e565b8a6040518098819582947faf554c5b000000000000000000000000000000000000000000000000000000008452166064356004840190929167ffffffffffffffff6020916040840195845216910152565b03925af191821561172e576116806116926108919261169a96604496611701575b5061168a61166686806120ef565b94909661167660248501826120ef565b99909401906120ef565b9690943691611f14565b953691611f70565b923691611fbc565b80845260026020526040842060027fffffffffffffffffffffffffffffffffffffffffffffffffffffffffffffff00825416179055807f7b7fe75b1149a5dfdde15ea794c36563367c5cd459178393d63e169d50be17826020604051428152a2388061142d565b6117229060203d602011611727575b61171a8183611dd4565b8101906120d7565b611658565b503d611710565b6040513d89823e3d90fd5b9392919750506020833d602011611776575b8161175860209383611dd4565b810103126103f857915187969192919067ffffffffffffffff6115ca565b3d915061174b565b6040513d8a823e3d90fd5b6117a19060203d6020116117275761171a8183611dd4565b61156d565b816117b091611dd4565b6117bb578638611516565b8680fd5b816117c991611dd4565b6117bb578638611423565b8780fd5b91985095506020813d60201161180b575b816117f660209383611dd4565b810103126103f85751889790956113d06113c5565b3d91506117e9565b6040513d8b823e3d90fd5b9950506020893d60201161184d575b8161183a60209383611dd4565b810103126103f85760208a99519061137a565b3d915061182d565b6040513d8c823e3d90fd5b50506113208897611318565b91506112f56112ea565b60248a7f4e487b710000000000000000000000000000000000000000000000000000000081526011600452fd5b6024887f4e487b710000000000000000000000000000000000000000000000000000000081526011600452fd5b846118dd91959295611dd4565b9238611277565b8480fd5b60646040517f08c379a000000000000000000000000000000000000000000000000000000000815260206004820152601660248201527f57534f4c20616d6f756e74206e6f7420656e6f756768000000000000000000006044820152fd5b60646040517f08c379a000000000000000000000000000000000000000000000000000000000815260206004820152600f60248201527f546f6b656e206e6f7420666f756e6400000000000000000000000000000000006044820152fd5b6024857f4e487b710000000000000000000000000000000000000000000000000000000081526021600452fd5b503461025c578060031936011261025c5750602066038d7ea4c68000604051908152f35b503461025c578060031936011261025c576040517f30aa81c600000000000000000000000000000000000000000000000000000000815260208160048173ff000000000000000000000000000000000000065afa908115610488578291611a62575b602082604051908152f35b90506020813d602011611a90575b81611a7d60209383611dd4565b8101031261071757602091505138611a57565b3d9150611a70565b503461025c578060031936011261025c5750602065b5e620f48000604051908152f35b503461025c57604060031936011261025c5760043567ffffffffffffffff811161071757611aed903690600401611e7e565b60243567ffffffffffffffff811161071357611b52611b126020923690600401611e7e565b92611b6460405194859384937ffce4bd2c00000000000000000000000000000000000000000000000000000000855260806004860152608485019061204b565b9060031984830301602485015261204b565b6009604483015230606483015203818573ffffffffffffffffffffffffffffffffffffffff7f0000000000000000000000000000000000000000000000000000000000000000165af1908115610488578291611c3e575b60208373ffffffffffffffffffffffffffffffffffffffff8416908181526002835260408120905060017fffffffffffffffffffffffffffffffffffffffffffffffffffffffffffffff00825416179055807f1cef2b4ec7f129e441c961eb4fae22fd3131868db6be990c6f065f35b6b53cf383604051428152a2604051908152f35b90506020813d602011611c99575b81611c5960209383611dd4565b81010312610717575173ffffffffffffffffffffffffffffffffffffffff811681036107175773ffffffffffffffffffffffffffffffffffffffff611bbb565b3d9150611c4c565b503461025c578060031936011261025c57602060405173ffffffffffffffffffffffffffffffffffffffff7f0000000000000000000000000000000000000000000000000000000000000000168152f35b503461025c57602060031936011261025c57611d0c611db1565b73ffffffffffffffffffffffffffffffffffffffff604051917f154d4aa500000000000000000000000000000000000000000000000000000000835216600482015260208160248173ff000000000000000000000000000000000000065afa908115610488578291611a6257602082604051908152f35b9050346107175781600319360112610717578073ff0000000000000000000000000000000000000660209252f35b6004359073ffffffffffffffffffffffffffffffffffffffff821682036103f857565b90601f7fffffffffffffffffffffffffffffffffffffffffffffffffffffffffffffffe0910116810190811067ffffffffffffffff821117611e1557604052565b7f4e487b7100000000000000000000000000000000000000000000000000000000600052604160045260246000fd5b67ffffffffffffffff8111611e1557601f017fffffffffffffffffffffffffffffffffffffffffffffffffffffffffffffffe01660200190565b81601f820112156103f857602081359101611e9882611e44565b92611ea66040519485611dd4565b828452828201116103f85781600092602092838601378301015290565b8115611ecd570490565b7f4e487b7100000000000000000000000000000000000000000000000000000000600052601260045260246000fd5b67ffffffffffffffff8111611e155760051b60200190565b9291611f1f82611efc565b93611f2d6040519586611dd4565b602085848152019260051b81019182116103f857915b818310611f4f57505050565b823567ffffffffffffffff811681036103f857815260209283019201611f43565b929190611f7c81611efc565b93611f8a6040519586611dd4565b602085838152019160051b81019283116103f857905b828210611fac57505050565b8135815260209182019101611fa0565b929190611fc881611efc565b93611fd66040519586611dd4565b602085838152019160051b8101918383116103f85781905b838210611ffc575050505050565b813567ffffffffffffffff81116103f85760209161201d8784938701611e7e565b815201910190611fee565b60005b83811061203b5750506000910152565b818101518382015260200161202b565b907fffffffffffffffffffffffffffffffffffffffffffffffffffffffffffffffe0601f60209361208781518092818752878088019101612028565b0116010190565b9190820391821161209b57565b7f4e487b7100000000000000000000000000000000000000000000000000000000600052601160045260246000fd5b9190820180921161209b57565b908160209103126103f8575180151581036103f85790565b9035907fffffffffffffffffffffffffffffffffffffffffffffffffffffffffffffffe1813603018212156103f8570180359067ffffffffffffffff82116103f857602001918160051b360383136103f857565b80518210156121575760209160051b010190565b7f4e487b7100000000000000000000000000000000000000000000000000000000600052603260045260246000fd5b9180519260005b84811061219b575050505050565b806121d267ffffffffffffffff6121b460019486612143565b51166121c08388612143565b516121cb8488612143565b51916122dc565b0161218d565b6002600054146121e9576002600055565b7f3ee5aeb50000000000000000000000000000000000000000000000000000000060005260046000fd5b81810291818304149015171561209b57612710900490565b73ffffffffffffffffffffffffffffffffffffffff60015416330361224c57565b7f118cdaa7000000000000000000000000000000000000000000000000000000006000523360045260246000fd5b6020818303126103f85780519067ffffffffffffffff82116103f8570181601f820112156103f85780516122ad81611e44565b926122bb6040519485611dd4565b818452602082840101116103f8576122d99160208085019101612028565b90565b909182156123d45760009161233b67ffffffffffffffff9260405195869485947f32607450000000000000000000000000000000000000000000000000000000008652166004850152602484015260606044840152606483019061204b565b03818373ff000000000000000000000000000000000000065af19081156123c8577fe33eb0896a1b189f05b8c6d69ce71e4db20a0f91fc82ae4d6384ad76ba6e5580916123a0916000916123a5575b505b60405191829160208352602083019061204b565b0390a1565b6123c291503d806000833e6123ba8183611dd4565b81019061227a565b3861238a565b6040513d6000823e3d90fd5b915067ffffffffffffffff60009161242760405194859384937fc549a7af00000000000000000000000000000000000000000000000000000000855216600484015260406024840152604483019061204b565b03818373ff000000000000000000000000000000000000065af19081156123c8577fe33eb0896a1b189f05b8c6d69ce71e4db20a0f91fc82ae4d6384ad76ba6e5580916123a09160009161247c575b5061238c565b61249191503d806000833e6123ba8183611dd4565b3861247656fea264697066735822122002d6441a40c7cbd5717ce923f1c359e15a27def489cb2c33792262cec81e027d64736f6c634300081a0033",
  "linkReferences": {},
  "deployedLinkReferences": {}
}