{
  "_format": "hh-sol-artifact-1",
  "contractName": "ERC20ForSplMintable",
  "sourceName": "contracts/TestCallSolana/erc20_for_spl/erc20_for_spl.sol",
  "abi": [
    {
      "inputs": [
        {
          "internalType": "string",
          "name": "_name",
          "type": "string"
        },
        {
          "internalType": "string",
          "name": "_symbol",
          "type": "string"
        },
        {
          "internalType": "uint8",
          "name": "_decimals",
          "type": "uint8"
        },
        {
          "internalType": "address",
          "name": "_mint_authority",
          "type": "address"
        }
      ],
      "stateMutability": "nonpayable",
      "type": "constructor"
    },
    {
      "anonymous": false,
      "inputs": [
        {
          "indexed": true,
          "internalType": "address",
          "name": "owner",
          "type": "address"
        },
        {
          "indexed": true,
          "internalType": "address",
          "name": "spender",
          "type": "address"
        },
        {
          "indexed": false,
          "internalType": "uint256",
          "name": "amount",
          "type": "uint256"
        }
      ],
      "name": "Approval",
      "type": "event"
    },
    {
      "anonymous": false,
      "inputs": [
        {
          "indexed": true,
          "internalType": "address",
          "name": "owner",
          "type": "address"
        },
        {
          "indexed": true,
          "internalType": "bytes32",
          "name": "spender",
          "type": "bytes32"
        },
        {
          "indexed": false,
          "internalType": "uint64",
          "name": "amount",
          "type": "uint64"
        }
      ],
      "name": "ApprovalSolana",
      "type": "event"
    },
    {
      "anonymous": false,
      "inputs": [
        {
          "indexed": true,
          "internalType": "address",
          "name": "from",
          "type": "address"
        },
        {
          "indexed": true,
          "internalType": "address",
          "name": "to",
          "type": "address"
        },
        {
          "indexed": false,
          "internalType": "uint256",
          "name": "amount",
          "type": "uint256"
        }
      ],
      "name": "Transfer",
      "type": "event"
    },
    {
      "anonymous": false,
      "inputs": [
        {
          "indexed": true,
          "internalType": "address",
          "name": "from",
          "type": "address"
        },
        {
          "indexed": true,
          "internalType": "bytes32",
          "name": "to",
          "type": "bytes32"
        },
        {
          "indexed": false,
          "internalType": "uint64",
          "name": "amount",
          "type": "uint64"
        }
      ],
      "name": "TransferSolana",
      "type": "event"
    },
    {
      "inputs": [
        {
          "internalType": "address",
          "name": "owner",
          "type": "address"
        },
        {
          "internalType": "address",
          "name": "spender",
          "type": "address"
        }
      ],
      "name": "allowance",
      "outputs": [
        {
          "internalType": "uint256",
          "name": "",
          "type": "uint256"
        }
      ],
      "stateMutability": "view",
      "type": "function"
    },
    {
      "inputs": [
        {
          "internalType": "address",
          "name": "spender",
          "type": "address"
        },
        {
          "internalType": "uint256",
          "name": "amount",
          "type": "uint256"
        }
      ],
      "name": "approve",
      "outputs": [
        {
          "internalType": "bool",
          "name": "",
          "type": "bool"
        }
      ],
      "stateMutability": "nonpayable",
      "type": "function"
    },
    {
      "inputs": [
        {
          "internalType": "bytes32",
          "name": "spender",
          "type": "bytes32"
        },
        {
          "internalType": "uint64",
          "name": "amount",
          "type": "uint64"
        }
      ],
      "name": "approveSolana",
      "outputs": [
        {
          "internalType": "bool",
          "name": "",
          "type": "bool"
        }
      ],
      "stateMutability": "nonpayable",
      "type": "function"
    },
    {
      "inputs": [
        {
          "internalType": "address",
          "name": "who",
          "type": "address"
        }
      ],
      "name": "balanceOf",
      "outputs": [
        {
          "internalType": "uint256",
          "name": "",
          "type": "uint256"
        }
      ],
      "stateMutability": "view",
      "type": "function"
    },
    {
      "inputs": [
        {
          "internalType": "uint256",
          "name": "amount",
          "type": "uint256"
        }
      ],
      "name": "burn",
      "outputs": [
        {
          "internalType": "bool",
          "name": "",
          "type": "bool"
        }
      ],
      "stateMutability": "nonpayable",
      "type": "function"
    },
    {
      "inputs": [
        {
          "internalType": "address",
          "name": "from",
          "type": "address"
        },
        {
          "internalType": "uint256",
          "name": "amount",
          "type": "uint256"
        }
      ],
      "name": "burnFrom",
      "outputs": [
        {
          "internalType": "bool",
          "name": "",
          "type": "bool"
        }
      ],
      "stateMutability": "nonpayable",
      "type": "function"
    },
    {
      "inputs": [
        {
          "internalType": "bytes32",
          "name": "from",
          "type": "bytes32"
        },
        {
          "internalType": "uint64",
          "name": "amount",
          "type": "uint64"
        }
      ],
      "name": "claim",
      "outputs": [
        {
          "internalType": "bool",
          "name": "",
          "type": "bool"
        }
      ],
      "stateMutability": "nonpayable",
      "type": "function"
    },
    {
      "inputs": [
        {
          "internalType": "bytes32",
          "name": "from",
          "type": "bytes32"
        },
        {
          "internalType": "address",
          "name": "to",
          "type": "address"
        },
        {
          "internalType": "uint64",
          "name": "amount",
          "type": "uint64"
        }
      ],
      "name": "claimTo",
      "outputs": [
        {
          "internalType": "bool",
          "name": "",
          "type": "bool"
        }
      ],
      "stateMutability": "nonpayable",
      "type": "function"
    },
    {
      "inputs": [],
      "name": "decimals",
      "outputs": [
        {
          "internalType": "uint8",
          "name": "",
          "type": "uint8"
        }
      ],
      "stateMutability": "view",
      "type": "function"
    },
    {
      "inputs": [],
      "name": "findMintAccount",
      "outputs": [
        {
          "internalType": "bytes32",
          "name": "",
          "type": "bytes32"
        }
      ],
      "stateMutability": "pure",
      "type": "function"
    },
    {
      "inputs": [
        {
          "internalType": "address",
          "name": "to",
          "type": "address"
        },
        {
          "internalType": "uint256",
          "name": "amount",
          "type": "uint256"
        }
      ],
      "name": "mint",
      "outputs": [],
      "stateMutability": "nonpayable",
      "type": "function"
    },
    {
      "inputs": [],
      "name": "name",
      "outputs": [
        {
          "internalType": "string",
          "name": "",
          "type": "string"
        }
      ],
      "stateMutability": "view",
      "type": "function"
    },
    {
      "inputs": [],
      "name": "symbol",
      "outputs": [
        {
          "internalType": "string",
          "name": "",
          "type": "string"
        }
      ],
      "stateMutability": "view",
      "type": "function"
    },
    {
      "inputs": [],
      "name": "tokenMint",
      "outputs": [
        {
          "internalType": "bytes32",
          "name": "",
          "type": "bytes32"
        }
      ],
      "stateMutability": "view",
      "type": "function"
    },
    {
      "inputs": [],
      "name": "totalSupply",
      "outputs": [
        {
          "internalType": "uint256",
          "name": "",
          "type": "uint256"
        }
      ],
      "stateMutability": "view",
      "type": "function"
    },
    {
      "inputs": [
        {
          "internalType": "address",
          "name": "to",
          "type": "address"
        },
        {
          "internalType": "uint256",
          "name": "amount",
          "type": "uint256"
        }
      ],
      "name": "transfer",
      "outputs": [
        {
          "internalType": "bool",
          "name": "",
          "type": "bool"
        }
      ],
      "stateMutability": "nonpayable",
      "type": "function"
    },
    {
      "inputs": [
        {
          "internalType": "address",
          "name": "from",
          "type": "address"
        },
        {
          "internalType": "address",
          "name": "to",
          "type": "address"
        },
        {
          "internalType": "uint256",
          "name": "amount",
          "type": "uint256"
        }
      ],
      "name": "transferFrom",
      "outputs": [
        {
          "internalType": "bool",
          "name": "",
          "type": "bool"
        }
      ],
      "stateMutability": "nonpayable",
      "type": "function"
    },
    {
      "inputs": [
        {
          "internalType": "bytes32",
          "name": "to",
          "type": "bytes32"
        },
        {
          "internalType": "uint64",
          "name": "amount",
          "type": "uint64"
        }
      ],
      "name": "transferSolana",
      "outputs": [
        {
          "internalType": "bool",
          "name": "",
          "type": "bool"
        }
      ],
      "stateMutability": "nonpayable",
      "type": "function"
    }
  ],
  "bytecode": "0x60c080604052346102be57612504803803809161001c8285610436565b83398101906080818303126102be5780516001600160401b0381116102be5782610047918301610492565b602082015190926001600160401b0382116102be57610067918301610492565b916060610076604084016104e6565b920151926001600160a01b03841684036102be5760ff60405193630b11ecc560e41b855260006004860152166024840152602083604481600073ff000000000000000000000000000000000000045af19283156102cb57600093610400575b5061010891602061011a81936040519586946362b9a86360e11b8652886004870152608060248701526084860190610501565b84810360031901604486015290610501565b60008382039160031983016064860152520181600073ff000000000000000000000000000000000000055af180156102cb576103d1575b5060405163a2ce9c1f60e01b81526004810182905260a08160248173ff000000000000000000000000000000000000045afa9081156102cb5760009161031c575b5060400151156102d75760405163f7b637bb60e01b81526004810182905260208160248173ff000000000000000000000000000000000000055afa9081156102cb5760009161028c575b50156102485760805260a052604051611fdd908161052782396080518181816102a5015281816103330152818161091b01528181610a1c01528181610cce01528181610e1201528181611126015281816113a1015281816119840152611d81015260a051816107fe0152f35b606460405162461bcd60e51b815260206004820152602060248201527f45524332303a206d697373696e67204d657461506c6578206d657461646174616044820152fd5b90506020813d6020116102c3575b816102a760209383610436565b810103126102be576102b8906104f4565b386101dc565b600080fd5b3d915061029a565b6040513d6000823e3d90fd5b60405162461bcd60e51b815260206004820152601960248201527f45524332303a20696e76616c696420746f6b656e206d696e74000000000000006044820152606490fd5b60a0813d60a0116103c9575b8161033560a09383610436565b810103126103c5576040519160a083016001600160401b038111848210176103b1576040528151906001600160401b03821682036103ae5750829160809160409452610383602082016104e6565b60208401526103938482016104f4565b84840152606081015160608401520151608082015290610192565b80fd5b634e487b7160e01b82526041600452602482fd5b5080fd5b3d9150610328565b6020813d6020116103f8575b816103ea60209383610436565b810103126102be5751610151565b3d91506103dd565b90926020823d60201161042e575b8161041b60209383610436565b810103126103ae575051916101086100d5565b3d915061040e565b601f909101601f19168101906001600160401b0382119082101761045957604052565b634e487b7160e01b600052604160045260246000fd5b60005b8381106104825750506000910152565b8181015183820152602001610472565b81601f820112156102be5780516001600160401b03811161045957604051926104c5601f8301601f191660200185610436565b818452602082840101116102be576104e3916020808501910161046f565b90565b519060ff821682036102be57565b519081151582036102be57565b9060209161051a8151809281855285808601910161046f565b601f01601f191601019056fe608080604052600436101561001357600080fd5b600090813560e01c90816306fdde0314610ddb57508063095ea7b314610db457806318160ddd14610d9157806323b872dd14610d58578063313ce56714610c9557806340c10f19146107ca57806342966c68146107ac57806356827373146106f55780635ca3e1e9146106cd57806367d1c2181461068557806370a08231146105c257806379cc67901461059157806393e29346146103ba57806395d89b41146102fa578063a9059cbb146102c8578063af25c0771461028d578063af554c5b146101455763dd62ed3e146100e757600080fd5b346101425760406003193601126101425773ffffffffffffffffffffffffffffffffffffffff6040610117610ede565b9282610121610f01565b94168152806020522091166000526020526020604060002054604051908152f35b80fd5b50346101425760406003193601126101425760043590610163610f24565b9061016d33611bf7565b73ff000000000000000000000000000000000000043b15610289576040517f78423bcf00000000000000000000000000000000000000000000000000000000815260048101919091526024810184905267ffffffffffffffff8316604482015281816064818373ff000000000000000000000000000000000000045af1801561027e57908291610269575b505067ffffffffffffffff6040519216918281527fddf252ad1be2c89b69c2b068fc378daa952ba7f163c4a11628f55a4df523b3ef60203392a36040519081527fe583d1a637e8abf51f188046ea719a60e5fa9d1b525c90e85666f5f459b3f14960203392a3602060405160018152f35b8161027391610f3b565b6101425780386101f8565b6040513d84823e3d90fd5b5080fd5b503461014257806003193601126101425760206040517f00000000000000000000000000000000000000000000000000000000000000008152f35b5034610142576040600319360112610142576102ef6102e5610ede565b6024359033611763565b602060405160018152f35b50346101425780600319360112610142576040517f6baa03300000000000000000000000000000000000000000000000000000000081527f00000000000000000000000000000000000000000000000000000000000000006004820152818160248173ff000000000000000000000000000000000000055afa90811561027e57826103939392610397575b505060405191829182610e94565b0390f35b6103b392503d8091833e6103ab8183610f3b565b810190610fab565b3880610385565b503461014257604060031936011261014257600435906103d8610f24565b906103e233611bf7565b67ffffffffffffffff8316929083156105015773ff000000000000000000000000000000000000043b156104fd576040517fa9c1580600000000000000000000000000000000000000000000000000000000815260048101919091526024810185905267ffffffffffffffff91909116604482015281816064818373ff000000000000000000000000000000000000045af1801561027e579082916104e8575b50505b6040518281527f8c5be1e5ebec7d5bd14f71427d1e84f3dd0314c0f7b2291e5b200ac8c7c3b92560203392a36040519081527ff2d0a01e4c49f3439199c8f8950e366e85c4d1bd845552f6da1009b3bb2c1a7060203392a3602060405160018152f35b816104f291610f3b565b610142578038610482565b8280fd5b905073ff000000000000000000000000000000000000043b1561028957604051907fb75c7dc6000000000000000000000000000000000000000000000000000000008252600482015281816024818373ff000000000000000000000000000000000000045af1801561027e5790829161057c575b5050610485565b8161058691610f3b565b610142578038610575565b5034610142576040600319360112610142576102ef6105ae610ede565b602435906105bd823383611656565b611c97565b5034610142576020600319360112610142576105e46105df610ede565b611bf7565b604051907fd1de5011000000000000000000000000000000000000000000000000000000008252600482015260e08160248173ff000000000000000000000000000000000000045afa90811561027e5767ffffffffffffffff9160409160209491610656575b50015116604051908152f35b610678915060e03d60e01161067e575b6106708183610f3b565b81019061144d565b3861064a565b503d610666565b50346101425760606003193601126101425761069f610f01565b6044359167ffffffffffffffff831683036101425760206106c384846004356111bf565b6040519015158152f35b50346101425760406003193601126101425760206106c36106ec610f24565b336004356111bf565b5034610142578060031936011261014257604051907feb7da78c00000000000000000000000000000000000000000000000000000000825280600483015260208260248173ff000000000000000000000000000000000000045afa9081156107a05790610768575b602090604051908152f35b506020813d602011610798575b8161078260209383610f3b565b81010312610793576020905161075d565b600080fd5b3d9150610775565b604051903d90823e3d90fd5b5034610142576020600319360112610142576102ef60043533611c97565b5034610142576040600319360112610142576107e4610ede565b60243573ffffffffffffffffffffffffffffffffffffffff7f0000000000000000000000000000000000000000000000000000000000000000163303610c2c5773ffffffffffffffffffffffffffffffffffffffff8216918215610be85767ffffffffffffffff8211610b7e576108596110fe565b828101809111610b515767ffffffffffffffff10610ae75761087a90611bf7565b6040517f6da9de7500000000000000000000000000000000000000000000000000000000815281600482015260208160248173ff000000000000000000000000000000000000045afa908115610a9e578591610aa9575b506109ee575b8373ff000000000000000000000000000000000000043b15610142576040517fc9d0e2fd0000000000000000000000000000000000000000000000000000000081527f00000000000000000000000000000000000000000000000000000000000000006004820152602481019290925267ffffffffffffffff83166044830152816064818373ff000000000000000000000000000000000000045af180156109e3576109ae575b507fddf252ad1be2c89b69c2b068fc378daa952ba7f163c4a11628f55a4df523b3ef60208492604051908152a380f35b836109dc6020957fddf252ad1be2c89b69c2b068fc378daa952ba7f163c4a11628f55a4df523b3ef93610f3b565b935061097e565b6040513d86823e3d90fd5b6040517fdaa12c5c0000000000000000000000000000000000000000000000000000000081528360048201527f000000000000000000000000000000000000000000000000000000000000000060248201526020816044818873ff000000000000000000000000000000000000045af18015610a9e57610a6f575b506108d7565b610a909060203d602011610a97575b610a888183610f3b565b8101906111b0565b5038610a69565b503d610a7e565b6040513d87823e3d90fd5b90506020813d602011610adf575b81610ac460209383610f3b565b81010312610adb57610ad590611050565b386108d1565b8480fd5b3d9150610ab7565b608460405162461bcd60e51b815260206004820152602b60248201527f45524332303a20746f74616c206d696e7420616d6f756e74206578636565647360448201527f2075696e743634206d61780000000000000000000000000000000000000000006064820152fd5b6024857f4e487b710000000000000000000000000000000000000000000000000000000081526011600452fd5b608460405162461bcd60e51b815260206004820152602560248201527f45524332303a206d696e7420616d6f756e7420657863656564732075696e743660448201527f34206d61780000000000000000000000000000000000000000000000000000006064820152fd5b606460405162461bcd60e51b815260206004820152601f60248201527f45524332303a206d696e7420746f20746865207a65726f2061646472657373006044820152fd5b608460405162461bcd60e51b8152602060048201526024808201527f45524332303a206d7573742068617665206d696e74657220726f6c6520746f2060448201527f6d696e74000000000000000000000000000000000000000000000000000000006064820152fd5b50346101425780600319360112610142576040517fa2ce9c1f0000000000000000000000000000000000000000000000000000000081527f0000000000000000000000000000000000000000000000000000000000000000600482015260a08160248173ff000000000000000000000000000000000000045afa9182156107a05760209260ff92849291610d2f5750015116604051908152f35b610678915060a03d60a011610d51575b610d498183610f3b565b81019061105d565b503d610d3f565b5034610142576060600319360112610142576102ef610d75610ede565b610d7d610f01565b60443591610d8c833383611656565b611763565b50346101425780600319360112610142576020610dac6110fe565b604051908152f35b5034610142576040600319360112610142576102ef610dd1610ede565b6024359033611502565b9050346102895781600319360112610289577f691f34310000000000000000000000000000000000000000000000000000000081527f00000000000000000000000000000000000000000000000000000000000000006004820152818160248173ff000000000000000000000000000000000000055afa90811561027e5782610393939261039757505060405191829182610e94565b60005b838110610e845750506000910152565b8181015183820152602001610e74565b7fffffffffffffffffffffffffffffffffffffffffffffffffffffffffffffffe0601f60409360208452610ed78151809281602088015260208888019101610e71565b0116010190565b6004359073ffffffffffffffffffffffffffffffffffffffff8216820361079357565b6024359073ffffffffffffffffffffffffffffffffffffffff8216820361079357565b6024359067ffffffffffffffff8216820361079357565b90601f7fffffffffffffffffffffffffffffffffffffffffffffffffffffffffffffffe0910116810190811067ffffffffffffffff821117610f7c57604052565b7f4e487b7100000000000000000000000000000000000000000000000000000000600052604160045260246000fd5b6020818303126107935780519067ffffffffffffffff8211610793570181601f8201121561079357805167ffffffffffffffff8111610f7c576040519261101a60207fffffffffffffffffffffffffffffffffffffffffffffffffffffffffffffffe0601f8501160185610f3b565b81845260208284010111610793576110389160208085019101610e71565b90565b519067ffffffffffffffff8216820361079357565b5190811515820361079357565b908160a09103126107935760405190600060a0830167ffffffffffffffff8111848210176110d1576040526110918261103b565b835260208201519060ff82168203610142575060208301526080906110b860408201611050565b6040840152606081015160608401520151608082015290565b6024827f4e487b710000000000000000000000000000000000000000000000000000000081526041600452fd5b6040517fa2ce9c1f0000000000000000000000000000000000000000000000000000000081527f0000000000000000000000000000000000000000000000000000000000000000600482015260a08160248173ff000000000000000000000000000000000000045afa80156111a45767ffffffffffffffff91600091611185575b50511690565b61119e915060a03d60a011610d5157610d498183610f3b565b3861117f565b6040513d6000823e3d90fd5b90816020910312610793575190565b91906111ca81611bf7565b91604051927f6da9de7500000000000000000000000000000000000000000000000000000000845260009381600482015260208160248173ff000000000000000000000000000000000000045afa908115610a9e578591611413575b5061135d575b73ff000000000000000000000000000000000000043b15611359579067ffffffffffffffff91604051957f7c0eb81000000000000000000000000000000000000000000000000000000000875233600488015260248701526044860152169283606482015282816084818373ff000000000000000000000000000000000000045af1801561134e57611301575b50602073ffffffffffffffffffffffffffffffffffffffff7fddf252ad1be2c89b69c2b068fc378daa952ba7f163c4a11628f55a4df523b3ef926040519586521693a3600190565b73ffffffffffffffffffffffffffffffffffffffff836113457fddf252ad1be2c89b69c2b068fc378daa952ba7f163c4a11628f55a4df523b3ef9495602094610f3b565b939250506112b9565b6040513d85823e3d90fd5b8380fd5b6040517fdaa12c5c00000000000000000000000000000000000000000000000000000000815273ffffffffffffffffffffffffffffffffffffffff841660048201527f000000000000000000000000000000000000000000000000000000000000000060248201526020816044818873ff000000000000000000000000000000000000045af18015610a9e576113f4575b5061122c565b61140c9060203d602011610a9757610a888183610f3b565b50386113ee565b90506020813d602011611445575b8161142e60209383610f3b565b81010312610adb5761143f90611050565b38611226565b3d9150611421565b908160e09103126107935760006040519160e0830183811067ffffffffffffffff8211176114d5579060c09160405280518452602081015160208501526114966040820161103b565b6040850152606081015160608501526114b16080820161103b565b608085015260a081015160a08501520151906003821015610142575060c082015290565b6024837f4e487b710000000000000000000000000000000000000000000000000000000081526041600452fd5b73ffffffffffffffffffffffffffffffffffffffff169081156115ed5773ffffffffffffffffffffffffffffffffffffffff169182156115835760207f8c5be1e5ebec7d5bd14f71427d1e84f3dd0314c0f7b2291e5b200ac8c7c3b925918360005260008252604060002085600052825280604060002055604051908152a3565b608460405162461bcd60e51b815260206004820152602260248201527f45524332303a20617070726f766520746f20746865207a65726f20616464726560448201527f73730000000000000000000000000000000000000000000000000000000000006064820152fd5b608460405162461bcd60e51b8152602060048201526024808201527f45524332303a20617070726f76652066726f6d20746865207a65726f2061646460448201527f72657373000000000000000000000000000000000000000000000000000000006064820152fd5b919073ffffffffffffffffffffffffffffffffffffffff83166000526000602052604060002073ffffffffffffffffffffffffffffffffffffffff8216600052602052604060002054917fffffffffffffffffffffffffffffffffffffffffffffffffffffffffffffffff83036116ce575b50505050565b80831061171f5782039182116116f0576116e792611502565b388080806116c8565b7f4e487b7100000000000000000000000000000000000000000000000000000000600052601160045260246000fd5b606460405162461bcd60e51b815260206004820152601d60248201527f45524332303a20696e73756666696369656e7420616c6c6f77616e63650000006044820152fd5b91600073ffffffffffffffffffffffffffffffffffffffff8416928315611b8d5773ffffffffffffffffffffffffffffffffffffffff8116948515611b23576117ae6117b491611bf7565b91611bf7565b67ffffffffffffffff8411611ab9576040517fd1de501100000000000000000000000000000000000000000000000000000000815282600482015260e08160248173ff000000000000000000000000000000000000045afa9081156109e3576040869267ffffffffffffffff928791611a9a575b5001511610611a30576040517f6da9de7500000000000000000000000000000000000000000000000000000000815281600482015260208160248173ff000000000000000000000000000000000000045afa9081156109e35784916119f6575b50611956575b73ff000000000000000000000000000000000000043b156104fd576040517f78423bcf0000000000000000000000000000000000000000000000000000000081526004810192909252602482015267ffffffffffffffff8316604482015281816064818373ff000000000000000000000000000000000000045af1801561027e57917fddf252ad1be2c89b69c2b068fc378daa952ba7f163c4a11628f55a4df523b3ef9391602093611946575b5050604051908152a3565b8161195091610f3b565b3861193b565b6040517fdaa12c5c0000000000000000000000000000000000000000000000000000000081528660048201527f000000000000000000000000000000000000000000000000000000000000000060248201526020816044818773ff000000000000000000000000000000000000045af180156109e3576119d7575b5061188e565b6119ef9060203d602011610a9757610a888183610f3b565b50386119d1565b90506020813d602011611a28575b81611a1160209383610f3b565b8101031261135957611a2290611050565b38611888565b3d9150611a04565b608460405162461bcd60e51b815260206004820152602660248201527f45524332303a207472616e7366657220616d6f756e742065786365656473206260448201527f616c616e636500000000000000000000000000000000000000000000000000006064820152fd5b611ab3915060e03d60e01161067e576106708183610f3b565b38611828565b608460405162461bcd60e51b815260206004820152602960248201527f45524332303a207472616e7366657220616d6f756e742065786365656473207560448201527f696e743634206d617800000000000000000000000000000000000000000000006064820152fd5b608460405162461bcd60e51b815260206004820152602360248201527f45524332303a207472616e7366657220746f20746865207a65726f206164647260448201527f65737300000000000000000000000000000000000000000000000000000000006064820152fd5b608460405162461bcd60e51b815260206004820152602560248201527f45524332303a207472616e736665722066726f6d20746865207a65726f20616460448201527f64726573730000000000000000000000000000000000000000000000000000006064820152fd5b73ffffffffffffffffffffffffffffffffffffffff604051917feb7da78c00000000000000000000000000000000000000000000000000000000835216600482015260208160248173ff000000000000000000000000000000000000045afa9081156111a457600091611c68575090565b90506020813d602011611c8f575b81611c8360209383610f3b565b81010312610793575190565b3d9150611c76565b60009173ffffffffffffffffffffffffffffffffffffffff8216918215611f3d5767ffffffffffffffff8211611ed357611cd090611bf7565b6040517fd1de501100000000000000000000000000000000000000000000000000000000815281600482015260e08160248173ff000000000000000000000000000000000000045afa908115610a9e576040849267ffffffffffffffff928891611eb4575b5001511610611e4a5773ff000000000000000000000000000000000000043b15611359576040517fc067eebb0000000000000000000000000000000000000000000000000000000081527f00000000000000000000000000000000000000000000000000000000000000006004820152602481019190915267ffffffffffffffff8216604482015283816064818373ff000000000000000000000000000000000000045af180156109e357611e13575b5060207fddf252ad1be2c89b69c2b068fc378daa952ba7f163c4a11628f55a4df523b3ef91604051908152a3565b83611e427fddf252ad1be2c89b69c2b068fc378daa952ba7f163c4a11628f55a4df523b3ef9395602093610f3b565b939150611de5565b608460405162461bcd60e51b815260206004820152602260248201527f45524332303a206275726e20616d6f756e7420657863656564732062616c616e60448201527f63650000000000000000000000000000000000000000000000000000000000006064820152fd5b611ecd915060e03d60e01161067e576106708183610f3b565b38611d35565b608460405162461bcd60e51b815260206004820152602560248201527f45524332303a206275726e20616d6f756e7420657863656564732075696e743660448201527f34206d61780000000000000000000000000000000000000000000000000000006064820152fd5b608460405162461bcd60e51b815260206004820152602160248201527f45524332303a206275726e2066726f6d20746865207a65726f2061646472657360448201527f73000000000000000000000000000000000000000000000000000000000000006064820152fdfea26469706673582212209a30009ed81fd2ff84abf8eff908f72babef468c048265ced037e046141af49864736f6c634300081a0033",
  "linkReferences": {},
  "deployedLinkReferences": {}
}