{
  "_format": "hh-sol-artifact-1",
  "contractName": "ERC20ForSpl",
  "sourceName": "contracts/TestCallSolana/erc20_for_spl/erc20_for_spl.sol",
  "abi": [
    {
      "inputs": [
        {
          "internalType": "bytes32",
          "name": "_tokenMint",
          "type": "bytes32"
        }
      ],
      "stateMutability": "nonpayable",
      "type": "constructor"
    },
    {
      "anonymous": false,
      "inputs": [
        {
          "indexed": true,
          "internalType": "address",
          "name": "owner",
          "type": "address"
        },
        {
          "indexed": true,
          "internalType": "address",
          "name": "spender",
          "type": "address"
        },
        {
          "indexed": false,
          "internalType": "uint256",
          "name": "amount",
          "type": "uint256"
        }
      ],
      "name": "Approval",
      "type": "event"
    },
    {
      "anonymous": false,
      "inputs": [
        {
          "indexed": true,
          "internalType": "address",
          "name": "owner",
          "type": "address"
        },
        {
          "indexed": true,
          "internalType": "bytes32",
          "name": "spender",
          "type": "bytes32"
        },
        {
          "indexed": false,
          "internalType": "uint64",
          "name": "amount",
          "type": "uint64"
        }
      ],
      "name": "ApprovalSolana",
      "type": "event"
    },
    {
      "anonymous": false,
      "inputs": [
        {
          "indexed": true,
          "internalType": "address",
          "name": "from",
          "type": "address"
        },
        {
          "indexed": true,
          "internalType": "address",
          "name": "to",
          "type": "address"
        },
        {
          "indexed": false,
          "internalType": "uint256",
          "name": "amount",
          "type": "uint256"
        }
      ],
      "name": "Transfer",
      "type": "event"
    },
    {
      "anonymous": false,
      "inputs": [
        {
          "indexed": true,
          "internalType": "address",
          "name": "from",
          "type": "address"
        },
        {
          "indexed": true,
          "internalType": "bytes32",
          "name": "to",
          "type": "bytes32"
        },
        {
          "indexed": false,
          "internalType": "uint64",
          "name": "amount",
          "type": "uint64"
        }
      ],
      "name": "TransferSolana",
      "type": "event"
    },
    {
      "inputs": [
        {
          "internalType": "address",
          "name": "owner",
          "type": "address"
        },
        {
          "internalType": "address",
          "name": "spender",
          "type": "address"
        }
      ],
      "name": "allowance",
      "outputs": [
        {
          "internalType": "uint256",
          "name": "",
          "type": "uint256"
        }
      ],
      "stateMutability": "view",
      "type": "function"
    },
    {
      "inputs": [
        {
          "internalType": "address",
          "name": "spender",
          "type": "address"
        },
        {
          "internalType": "uint256",
          "name": "amount",
          "type": "uint256"
        }
      ],
      "name": "approve",
      "outputs": [
        {
          "internalType": "bool",
          "name": "",
          "type": "bool"
        }
      ],
      "stateMutability": "nonpayable",
      "type": "function"
    },
    {
      "inputs": [
        {
          "internalType": "bytes32",
          "name": "spender",
          "type": "bytes32"
        },
        {
          "internalType": "uint64",
          "name": "amount",
          "type": "uint64"
        }
      ],
      "name": "approveSolana",
      "outputs": [
        {
          "internalType": "bool",
          "name": "",
          "type": "bool"
        }
      ],
      "stateMutability": "nonpayable",
      "type": "function"
    },
    {
      "inputs": [
        {
          "internalType": "address",
          "name": "who",
          "type": "address"
        }
      ],
      "name": "balanceOf",
      "outputs": [
        {
          "internalType": "uint256",
          "name": "",
          "type": "uint256"
        }
      ],
      "stateMutability": "view",
      "type": "function"
    },
    {
      "inputs": [
        {
          "internalType": "uint256",
          "name": "amount",
          "type": "uint256"
        }
      ],
      "name": "burn",
      "outputs": [
        {
          "internalType": "bool",
          "name": "",
          "type": "bool"
        }
      ],
      "stateMutability": "nonpayable",
      "type": "function"
    },
    {
      "inputs": [
        {
          "internalType": "address",
          "name": "from",
          "type": "address"
        },
        {
          "internalType": "uint256",
          "name": "amount",
          "type": "uint256"
        }
      ],
      "name": "burnFrom",
      "outputs": [
        {
          "internalType": "bool",
          "name": "",
          "type": "bool"
        }
      ],
      "stateMutability": "nonpayable",
      "type": "function"
    },
    {
      "inputs": [
        {
          "internalType": "bytes32",
          "name": "from",
          "type": "bytes32"
        },
        {
          "internalType": "uint64",
          "name": "amount",
          "type": "uint64"
        }
      ],
      "name": "claim",
      "outputs": [
        {
          "internalType": "bool",
          "name": "",
          "type": "bool"
        }
      ],
      "stateMutability": "nonpayable",
      "type": "function"
    },
    {
      "inputs": [
        {
          "internalType": "bytes32",
          "name": "from",
          "type": "bytes32"
        },
        {
          "internalType": "address",
          "name": "to",
          "type": "address"
        },
        {
          "internalType": "uint64",
          "name": "amount",
          "type": "uint64"
        }
      ],
      "name": "claimTo",
      "outputs": [
        {
          "internalType": "bool",
          "name": "",
          "type": "bool"
        }
      ],
      "stateMutability": "nonpayable",
      "type": "function"
    },
    {
      "inputs": [],
      "name": "decimals",
      "outputs": [
        {
          "internalType": "uint8",
          "name": "",
          "type": "uint8"
        }
      ],
      "stateMutability": "view",
      "type": "function"
    },
    {
      "inputs": [],
      "name": "name",
      "outputs": [
        {
          "internalType": "string",
          "name": "",
          "type": "string"
        }
      ],
      "stateMutability": "view",
      "type": "function"
    },
    {
      "inputs": [],
      "name": "symbol",
      "outputs": [
        {
          "internalType": "string",
          "name": "",
          "type": "string"
        }
      ],
      "stateMutability": "view",
      "type": "function"
    },
    {
      "inputs": [],
      "name": "tokenMint",
      "outputs": [
        {
          "internalType": "bytes32",
          "name": "",
          "type": "bytes32"
        }
      ],
      "stateMutability": "view",
      "type": "function"
    },
    {
      "inputs": [],
      "name": "totalSupply",
      "outputs": [
        {
          "internalType": "uint256",
          "name": "",
          "type": "uint256"
        }
      ],
      "stateMutability": "view",
      "type": "function"
    },
    {
      "inputs": [
        {
          "internalType": "address",
          "name": "to",
          "type": "address"
        },
        {
          "internalType": "uint256",
          "name": "amount",
          "type": "uint256"
        }
      ],
      "name": "transfer",
      "outputs": [
        {
          "internalType": "bool",
          "name": "",
          "type": "bool"
        }
      ],
      "stateMutability": "nonpayable",
      "type": "function"
    },
    {
      "inputs": [
        {
          "internalType": "address",
          "name": "from",
          "type": "address"
        },
        {
          "internalType": "address",
          "name": "to",
          "type": "address"
        },
        {
          "internalType": "uint256",
          "name": "amount",
          "type": "uint256"
        }
      ],
      "name": "transferFrom",
      "outputs": [
        {
          "internalType": "bool",
          "name": "",
          "type": "bool"
        }
      ],
      "stateMutability": "nonpayable",
      "type": "function"
    },
    {
      "inputs": [
        {
          "internalType": "bytes32",
          "name": "to",
          "type": "bytes32"
        },
        {
          "internalType": "uint64",
          "name": "amount",
          "type": "uint64"
        }
      ],
      "name": "transferSolana",
      "outputs": [
        {
          "internalType": "bool",
          "name": "",
          "type": "bool"
        }
      ],
      "stateMutability": "nonpayable",
      "type": "function"
    }
  ],
  "bytecode": "0x60a0806040523461017c57602081611e4d803803809161001f8285610292565b83398101031261017c575160405163a2ce9c1f60e01b81526004810182905260a08160248173ff000000000000000000000000000000000000045afa908115610189576000916101da575b5060400151156101955760405163f7b637bb60e01b81526004810182905260208160248173ff000000000000000000000000000000000000055afa9081156101895760009161014a575b501561010657608052604051611b7490816102d9823960805181818161028f0152818161031d01528181610730015281816108380152818161091c01528181610dfe0152818161144e015261181e0152f35b606460405162461bcd60e51b815260206004820152602060248201527f45524332303a206d697373696e67204d657461506c6578206d657461646174616044820152fd5b90506020813d602011610181575b8161016560209383610292565b8101031261017c57610176906102cb565b386100b4565b600080fd5b3d9150610158565b6040513d6000823e3d90fd5b60405162461bcd60e51b815260206004820152601960248201527f45524332303a20696e76616c696420746f6b656e206d696e74000000000000006044820152606490fd5b60a0813d60a01161028a575b816101f360a09383610292565b81010312610272576040519160a083016001600160401b038111848210176102765760405281516001600160401b038116810361027257835260208201519060ff8216820361026f57508291608091602060409501526102548482016102cb565b8484015260608101516060840152015160808201529061006a565b80fd5b5080fd5b634e487b7160e01b82526041600452602482fd5b3d91506101e6565b601f909101601f19168101906001600160401b038211908210176102b557604052565b634e487b7160e01b600052604160045260246000fd5b5190811515820361017c5756fe608080604052600436101561001357600080fd5b600090813560e01c90816306fdde03146108e557508063095ea7b3146108be57806318160ddd146107ff57806323b872dd146107c6578063313ce567146106f757806342966c68146106d95780635ca3e1e9146106b157806367d1c2181461066957806370a08231146105a657806379cc67901461057557806393e29346146103a457806395d89b41146102e4578063a9059cbb146102b2578063af25c07714610277578063af554c5b1461012f5763dd62ed3e146100d157600080fd5b3461012c57604060031936011261012c5773ffffffffffffffffffffffffffffffffffffffff60406101016109e8565b928261010b610a10565b94168152806020522091166000526020526020604060002054604051908152f35b80fd5b503461012c57604060031936011261012c576004359061014d610a33565b9061015733611a92565b73ff000000000000000000000000000000000000043b15610273576040517f78423bcf00000000000000000000000000000000000000000000000000000000815260048101919091526024810184905267ffffffffffffffff8316604482015281816064818373ff000000000000000000000000000000000000045af1801561026857908291610253575b505067ffffffffffffffff6040519216918281527fddf252ad1be2c89b69c2b068fc378daa952ba7f163c4a11628f55a4df523b3ef60203392a36040519081527fe583d1a637e8abf51f188046ea719a60e5fa9d1b525c90e85666f5f459b3f14960203392a3602060405160018152f35b8161025d91610a4a565b61012c5780386101e2565b6040513d84823e3d90fd5b5080fd5b503461012c578060031936011261012c5760206040517f00000000000000000000000000000000000000000000000000000000000000008152f35b503461012c57604060031936011261012c576102d96102cf6109e8565b602435903361122d565b602060405160018152f35b503461012c578060031936011261012c576040517f6baa03300000000000000000000000000000000000000000000000000000000081527f00000000000000000000000000000000000000000000000000000000000000006004820152818160248173ff000000000000000000000000000000000000055afa908115610268578261037d9392610381575b50506040519182918261099e565b0390f35b61039d92503d8091833e6103958183610a4a565b810190610aba565b388061036f565b503461012c57604060031936011261012c57600435906103c2610a33565b906103cc33611a92565b67ffffffffffffffff8316929083156104eb5773ff000000000000000000000000000000000000043b156104e7576040517fa9c1580600000000000000000000000000000000000000000000000000000000815260048101919091526024810185905267ffffffffffffffff91909116604482015281816064818373ff000000000000000000000000000000000000045af18015610268579082916104d2575b50505b6040518281527f8c5be1e5ebec7d5bd14f71427d1e84f3dd0314c0f7b2291e5b200ac8c7c3b92560203392a36040519081527ff2d0a01e4c49f3439199c8f8950e366e85c4d1bd845552f6da1009b3bb2c1a7060203392a3602060405160018152f35b816104dc91610a4a565b61012c57803861046c565b8280fd5b905073ff000000000000000000000000000000000000043b1561027357604051907fb75c7dc6000000000000000000000000000000000000000000000000000000008252600482015281816024818373ff000000000000000000000000000000000000045af18015610268578290610565575b505061046f565b61056e91610a4a565b388161055e565b503461012c57604060031936011261012c576102d96105926109e8565b602435906105a1823383611106565b611734565b503461012c57602060031936011261012c576105c86105c36109e8565b611a92565b604051907fd1de5011000000000000000000000000000000000000000000000000000000008252600482015260e08160248173ff000000000000000000000000000000000000045afa9081156102685767ffffffffffffffff916040916020949161063a575b50015116604051908152f35b61065c915060e03d60e011610662575b6106548183610a4a565b810190610ec9565b3861062e565b503d61064a565b503461012c57606060031936011261012c57610683610a10565b6044359167ffffffffffffffff8316830361012c5760206106a78484600435610c1c565b6040519015158152f35b503461012c57604060031936011261012c5760206106a76106d0610a33565b33600435610c1c565b503461012c57602060031936011261012c576102d960043533611734565b503461012c578060031936011261012c576040517fa2ce9c1f0000000000000000000000000000000000000000000000000000000081527f0000000000000000000000000000000000000000000000000000000000000000600482015260a08160248173ff000000000000000000000000000000000000045afa9182156107ba5760209260ff928492916107915750015116604051908152f35b61065c915060a03d60a0116107b3575b6107ab8183610a4a565b810190610b6c565b503d6107a1565b604051903d90823e3d90fd5b503461012c57606060031936011261012c576102d96107e36109e8565b6107eb610a10565b604435916107fa833383611106565b61122d565b503461012c578060031936011261012c576040517fa2ce9c1f0000000000000000000000000000000000000000000000000000000081527f0000000000000000000000000000000000000000000000000000000000000000600482015260a08160248173ff000000000000000000000000000000000000045afa908115610268579067ffffffffffffffff916020939161089f575b505116604051908152f35b6108b8915060a03d60a0116107b3576107ab8183610a4a565b38610894565b503461012c57604060031936011261012c576102d96108db6109e8565b6024359033610f7e565b9050346102735781600319360112610273577f691f34310000000000000000000000000000000000000000000000000000000081527f00000000000000000000000000000000000000000000000000000000000000006004820152818160248173ff000000000000000000000000000000000000055afa908115610268578261037d93926103815750506040519182918261099e565b60005b83811061098e5750506000910152565b818101518382015260200161097e565b7fffffffffffffffffffffffffffffffffffffffffffffffffffffffffffffffe0601f604093602084526109e1815180928160208801526020888801910161097b565b0116010190565b6004359073ffffffffffffffffffffffffffffffffffffffff82168203610a0b57565b600080fd5b6024359073ffffffffffffffffffffffffffffffffffffffff82168203610a0b57565b6024359067ffffffffffffffff82168203610a0b57565b90601f7fffffffffffffffffffffffffffffffffffffffffffffffffffffffffffffffe0910116810190811067ffffffffffffffff821117610a8b57604052565b7f4e487b7100000000000000000000000000000000000000000000000000000000600052604160045260246000fd5b602081830312610a0b5780519067ffffffffffffffff8211610a0b570181601f82011215610a0b57805167ffffffffffffffff8111610a8b5760405192610b2960207fffffffffffffffffffffffffffffffffffffffffffffffffffffffffffffffe0601f8501160185610a4a565b81845260208284010111610a0b57610b47916020808501910161097b565b90565b519067ffffffffffffffff82168203610a0b57565b51908115158203610a0b57565b908160a0910312610a0b5760405190600060a0830167ffffffffffffffff811184821017610be057604052610ba082610b4a565b835260208201519060ff8216820361012c57506020830152608090610bc760408201610b5f565b6040840152606081015160608401520151608082015290565b6024827f4e487b710000000000000000000000000000000000000000000000000000000081526041600452fd5b90816020910312610a0b575190565b9190610c2781611a92565b91604051927f6da9de7500000000000000000000000000000000000000000000000000000000845260009381600482015260208160248173ff000000000000000000000000000000000000045afa908115610e80578591610e8b575b50610dba575b73ff000000000000000000000000000000000000043b15610db6579067ffffffffffffffff91604051957f7c0eb81000000000000000000000000000000000000000000000000000000000875233600488015260248701526044860152169283606482015282816084818373ff000000000000000000000000000000000000045af18015610dab57610d5e575b50602073ffffffffffffffffffffffffffffffffffffffff7fddf252ad1be2c89b69c2b068fc378daa952ba7f163c4a11628f55a4df523b3ef926040519586521693a3600190565b73ffffffffffffffffffffffffffffffffffffffff83610da27fddf252ad1be2c89b69c2b068fc378daa952ba7f163c4a11628f55a4df523b3ef9495602094610a4a565b93925050610d16565b6040513d85823e3d90fd5b8380fd5b6040517fdaa12c5c00000000000000000000000000000000000000000000000000000000815273ffffffffffffffffffffffffffffffffffffffff841660048201527f000000000000000000000000000000000000000000000000000000000000000060248201526020816044818873ff000000000000000000000000000000000000045af18015610e8057610e51575b50610c89565b610e729060203d602011610e79575b610e6a8183610a4a565b810190610c0d565b5038610e4b565b503d610e60565b6040513d87823e3d90fd5b90506020813d602011610ec1575b81610ea660209383610a4a565b81010312610ebd57610eb790610b5f565b38610c83565b8480fd5b3d9150610e99565b908160e0910312610a0b5760006040519160e0830183811067ffffffffffffffff821117610f51579060c0916040528051845260208101516020850152610f1260408201610b4a565b604085015260608101516060850152610f2d60808201610b4a565b608085015260a081015160a0850152015190600382101561012c575060c082015290565b6024837f4e487b710000000000000000000000000000000000000000000000000000000081526041600452fd5b73ffffffffffffffffffffffffffffffffffffffff169081156110835773ffffffffffffffffffffffffffffffffffffffff16918215610fff5760207f8c5be1e5ebec7d5bd14f71427d1e84f3dd0314c0f7b2291e5b200ac8c7c3b925918360005260008252604060002085600052825280604060002055604051908152a3565b60846040517f08c379a000000000000000000000000000000000000000000000000000000000815260206004820152602260248201527f45524332303a20617070726f766520746f20746865207a65726f20616464726560448201527f73730000000000000000000000000000000000000000000000000000000000006064820152fd5b60846040517f08c379a0000000000000000000000000000000000000000000000000000000008152602060048201526024808201527f45524332303a20617070726f76652066726f6d20746865207a65726f2061646460448201527f72657373000000000000000000000000000000000000000000000000000000006064820152fd5b919073ffffffffffffffffffffffffffffffffffffffff83166000526000602052604060002073ffffffffffffffffffffffffffffffffffffffff8216600052602052604060002054917fffffffffffffffffffffffffffffffffffffffffffffffffffffffffffffffff830361117e575b50505050565b8083106111cf5782039182116111a05761119792610f7e565b38808080611178565b7f4e487b7100000000000000000000000000000000000000000000000000000000600052601160045260246000fd5b60646040517f08c379a000000000000000000000000000000000000000000000000000000000815260206004820152601d60248201527f45524332303a20696e73756666696369656e7420616c6c6f77616e63650000006044820152fd5b91600073ffffffffffffffffffffffffffffffffffffffff84169283156116b05773ffffffffffffffffffffffffffffffffffffffff811694851561162c5761127861127e91611a92565b91611a92565b67ffffffffffffffff84116115a8576040517fd1de501100000000000000000000000000000000000000000000000000000000815282600482015260e08160248173ff000000000000000000000000000000000000045afa9081156114c0576040869267ffffffffffffffff928791611589575b5001511610611505576040517f6da9de7500000000000000000000000000000000000000000000000000000000815281600482015260208160248173ff000000000000000000000000000000000000045afa9081156114c05784916114cb575b50611420575b73ff000000000000000000000000000000000000043b156104e7576040517f78423bcf0000000000000000000000000000000000000000000000000000000081526004810192909252602482015267ffffffffffffffff8316604482015281816064818373ff000000000000000000000000000000000000045af1801561026857917fddf252ad1be2c89b69c2b068fc378daa952ba7f163c4a11628f55a4df523b3ef9391602093611410575b5050604051908152a3565b8161141a91610a4a565b38611405565b6040517fdaa12c5c0000000000000000000000000000000000000000000000000000000081528660048201527f000000000000000000000000000000000000000000000000000000000000000060248201526020816044818773ff000000000000000000000000000000000000045af180156114c0576114a1575b50611358565b6114b99060203d602011610e7957610e6a8183610a4a565b503861149b565b6040513d86823e3d90fd5b90506020813d6020116114fd575b816114e660209383610a4a565b81010312610db6576114f790610b5f565b38611352565b3d91506114d9565b60846040517f08c379a000000000000000000000000000000000000000000000000000000000815260206004820152602660248201527f45524332303a207472616e7366657220616d6f756e742065786365656473206260448201527f616c616e636500000000000000000000000000000000000000000000000000006064820152fd5b6115a2915060e03d60e011610662576106548183610a4a565b386112f2565b60846040517f08c379a000000000000000000000000000000000000000000000000000000000815260206004820152602960248201527f45524332303a207472616e7366657220616d6f756e742065786365656473207560448201527f696e743634206d617800000000000000000000000000000000000000000000006064820152fd5b60846040517f08c379a000000000000000000000000000000000000000000000000000000000815260206004820152602360248201527f45524332303a207472616e7366657220746f20746865207a65726f206164647260448201527f65737300000000000000000000000000000000000000000000000000000000006064820152fd5b60846040517f08c379a000000000000000000000000000000000000000000000000000000000815260206004820152602560248201527f45524332303a207472616e736665722066726f6d20746865207a65726f20616460448201527f64726573730000000000000000000000000000000000000000000000000000006064820152fd5b60009173ffffffffffffffffffffffffffffffffffffffff8216918215611a0e5767ffffffffffffffff821161198a5761176d90611a92565b6040517fd1de501100000000000000000000000000000000000000000000000000000000815281600482015260e08160248173ff000000000000000000000000000000000000045afa908115610e80576040849267ffffffffffffffff92889161196b575b50015116106118e75773ff000000000000000000000000000000000000043b15610db6576040517fc067eebb0000000000000000000000000000000000000000000000000000000081527f00000000000000000000000000000000000000000000000000000000000000006004820152602481019190915267ffffffffffffffff8216604482015283816064818373ff000000000000000000000000000000000000045af180156114c0576118b0575b5060207fddf252ad1be2c89b69c2b068fc378daa952ba7f163c4a11628f55a4df523b3ef91604051908152a3565b836118df7fddf252ad1be2c89b69c2b068fc378daa952ba7f163c4a11628f55a4df523b3ef9395602093610a4a565b939150611882565b60846040517f08c379a000000000000000000000000000000000000000000000000000000000815260206004820152602260248201527f45524332303a206275726e20616d6f756e7420657863656564732062616c616e60448201527f63650000000000000000000000000000000000000000000000000000000000006064820152fd5b611984915060e03d60e011610662576106548183610a4a565b386117d2565b60846040517f08c379a000000000000000000000000000000000000000000000000000000000815260206004820152602560248201527f45524332303a206275726e20616d6f756e7420657863656564732075696e743660448201527f34206d61780000000000000000000000000000000000000000000000000000006064820152fd5b60846040517f08c379a000000000000000000000000000000000000000000000000000000000815260206004820152602160248201527f45524332303a206275726e2066726f6d20746865207a65726f2061646472657360448201527f73000000000000000000000000000000000000000000000000000000000000006064820152fd5b73ffffffffffffffffffffffffffffffffffffffff604051917feb7da78c00000000000000000000000000000000000000000000000000000000835216600482015260208160248173ff000000000000000000000000000000000000045afa908115611b3257600091611b03575090565b90506020813d602011611b2a575b81611b1e60209383610a4a565b81010312610a0b575190565b3d9150611b11565b6040513d6000823e3d90fdfea2646970667358221220458524b763bd9030bc7d79a31e0f17b2b0aaa215f652fcf0abbf8b41c26d1c1164736f6c634300081a0033",
  "linkReferences": {},
  "deployedLinkReferences": {}
}