{
  "_format": "hh-sol-artifact-1",
  "contractName": "TestChainlink",
  "sourceName": "contracts/TestChainlink/TestChainlink.sol",
  "abi": [
    {
      "inputs": [
        {
          "internalType": "address",
          "name": "_priceFeed",
          "type": "address"
        }
      ],
      "name": "getDecimals",
      "outputs": [
        {
          "internalType": "uint8",
          "name": "",
          "type": "uint8"
        }
      ],
      "stateMutability": "view",
      "type": "function"
    },
    {
      "inputs": [
        {
          "internalType": "address",
          "name": "_priceFeed",
          "type": "address"
        }
      ],
      "name": "getLatestPrice",
      "outputs": [
        {
          "internalType": "int256",
          "name": "",
          "type": "int256"
        }
      ],
      "stateMutability": "view",
      "type": "function"
    }
  ],
  "bytecode": "0x608080604052346015576102c4908161001b8239f35b600080fdfe608080604052600436101561001357600080fd5b60003560e01c90816316345f1814610125575063cf54aaa01461003557600080fd5b346101205760207ffffffffffffffffffffffffffffffffffffffffffffffffffffffffffffffffc3601126101205760043573ffffffffffffffffffffffffffffffffffffffff8116809103610120576020600491604051928380927f313ce5670000000000000000000000000000000000000000000000000000000082525afa908115610114576000916100d3575b60208260ff60405191168152f35b6020813d60201161010c575b816100ec60209383610207565b81010312610108575160ff8116810361010857905060206100c5565b5080fd5b3d91506100df565b6040513d6000823e3d90fd5b600080fd5b346101205760207ffffffffffffffffffffffffffffffffffffffffffffffffffffffffffffffffc3601126101205760043573ffffffffffffffffffffffffffffffffffffffff8116809103610120578160048160a0937ffeaf968c0000000000000000000000000000000000000000000000000000000082525afa8015610114576000906101ba575b602090604051908152f35b5060a0813d60a0116101ff575b816101d460a09383610207565b8101031261012057806101e8602092610277565b506101f96080838301519201610277565b506101af565b3d91506101c7565b90601f7fffffffffffffffffffffffffffffffffffffffffffffffffffffffffffffffe0910116810190811067ffffffffffffffff82111761024857604052565b7f4e487b7100000000000000000000000000000000000000000000000000000000600052604160045260246000fd5b519069ffffffffffffffffffff821682036101205756fea26469706673582212209d034fad20d5dc69906c6181cfb8aa985add1b9a6f7989dd9f8e0d8c24076add64736f6c634300081a0033",
  "linkReferences": {},
  "deployedLinkReferences": {}
}