{
  "_format": "hh-sol-artifact-1",
  "contractName": "TestReadTokenAccountData",
  "sourceName": "contracts/TestReadSolanaData/TestReadTokenAccountData.sol",
  "abi": [
    {
      "inputs": [
        {
          "internalType": "bytes32",
          "name": "solanaAddress",
          "type": "bytes32"
        }
      ],
      "name": "checkIfSolanaAccountIsExecutable",
      "outputs": [
        {
          "internalType": "bool",
          "name": "",
          "type": "bool"
        }
      ],
      "stateMutability": "view",
      "type": "function"
    },
    {
      "inputs": [
        {
          "internalType": "bytes32",
          "name": "solanaAddress",
          "type": "bytes32"
        }
      ],
      "name": "readSolanaAccountLamports",
      "outputs": [
        {
          "internalType": "uint256",
          "name": "",
          "type": "uint256"
        }
      ],
      "stateMutability": "view",
      "type": "function"
    },
    {
      "inputs": [
        {
          "internalType": "bytes32",
          "name": "solanaAddress",
          "type": "bytes32"
        }
      ],
      "name": "readSolanaAccountOwner",
      "outputs": [
        {
          "internalType": "bytes",
          "name": "",
          "type": "bytes"
        }
      ],
      "stateMutability": "view",
      "type": "function"
    },
    {
      "inputs": [
        {
          "internalType": "bytes32",
          "name": "solanaAddress",
          "type": "bytes32"
        }
      ],
      "name": "readSolanaDataAccountLen",
      "outputs": [
        {
          "internalType": "uint256",
          "name": "",
          "type": "uint256"
        }
      ],
      "stateMutability": "view",
      "type": "function"
    },
    {
      "inputs": [
        {
          "internalType": "bytes32",
          "name": "solanaAddress",
          "type": "bytes32"
        },
        {
          "internalType": "uint64",
          "name": "offset",
          "type": "uint64"
        },
        {
          "internalType": "uint64",
          "name": "len",
          "type": "uint64"
        }
      ],
      "name": "readSolanaDataAccountRaw",
      "outputs": [
        {
          "internalType": "bytes",
          "name": "",
          "type": "bytes"
        }
      ],
      "stateMutability": "view",
      "type": "function"
    },
    {
      "inputs": [
        {
          "internalType": "bytes32",
          "name": "solanaAddress",
          "type": "bytes32"
        },
        {
          "internalType": "uint64",
          "name": "offset",
          "type": "uint64"
        },
        {
          "internalType": "uint64",
          "name": "len",
          "type": "uint64"
        }
      ],
      "name": "readSolanaTokenAccountData",
      "outputs": [
        {
          "internalType": "bytes32",
          "name": "",
          "type": "bytes32"
        },
        {
          "internalType": "bytes32",
          "name": "",
          "type": "bytes32"
        },
        {
          "internalType": "uint64",
          "name": "",
          "type": "uint64"
        }
      ],
      "stateMutability": "view",
      "type": "function"
    }
  ],
  "bytecode": "0x608080604052346015576107d6908161001b8239f35b600080fdfe6080604052600436101561001257600080fd5b60003560e01c806339b1e7a414610077578063554cdbd714610072578063630f43901461006d5780636f131cc9146100685780637a8f865d146100635763c78208eb1461005e57600080fd5b6104fb565b610457565b6103b6565b610393565b61017b565b3461011c5760207ffffffffffffffffffffffffffffffffffffffffffffffffffffffffffffffffc36011261011c576004357faa8b99d20000000000000000000000000000000000000000000000000000000060a05260a45260246080526100df6044610629565b602060008060805160a073ff000000000000000000000000000000000000025afa6101148261010c6106b1565b015191610595565b604051908152f35b600080fd5b7ffffffffffffffffffffffffffffffffffffffffffffffffffffffffffffffffc606091011261011c576004359060243567ffffffffffffffff8116810361011c579060443567ffffffffffffffff8116810361011c5790565b3461011c5761019c61019561018f36610121565b9161070f565b9190610595565b60208151106102cd5760208101516101b382610790565b91604881511061026f57610242604861026b92015167ffffffffffff000067ff00ff00ff00ff0066ff00ff00ff00ff8360081c169260081b169165ffff0000ffff65ffff0000ff0065ffffffffffff67ffff0000ffff0000861666ff0000ffff000085161760101c16941691161760101b161767ffffffff0000000063ffffffff8260201c169160201b161790565b6040519384938491604091949367ffffffffffffffff9160608501968552602085015216910152565b0390f35b60646040517f08c379a000000000000000000000000000000000000000000000000000000000815260206004820152601460248201527f746f55696e7436345f6f75744f66426f756e64730000000000000000000000006044820152fd5b60646040517f08c379a000000000000000000000000000000000000000000000000000000000815260206004820152601560248201527f746f427974657333325f6f75744f66426f756e647300000000000000000000006044820152fd5b9190916020815282519283602083015260005b84811061037d5750507fffffffffffffffffffffffffffffffffffffffffffffffffffffffffffffffe0601f8460006040809697860101520116010190565b806020809284010151604082860101520161033e565b3461011c5761026b6103aa61019561018f36610121565b6040519182918261032b565b3461011c5760207ffffffffffffffffffffffffffffffffffffffffffffffffffffffffffffffffc36011261011c5761026b60008060043560405160208101917fa123c33e00000000000000000000000000000000000000000000000000000000835260248201526024815261042d604482610670565b519073ff000000000000000000000000000000000000025afa6103aa6104516106b1565b91610595565b3461011c5760207ffffffffffffffffffffffffffffffffffffffffffffffffffffffffffffffffc36011261011c576020600080600435604051848101917fc219a7850000000000000000000000000000000000000000000000000000000083526024820152602481526104cc604482610670565b519073ff000000000000000000000000000000000000025afa6104f18261010c6106b1565b6040519015158152f35b3461011c5760207ffffffffffffffffffffffffffffffffffffffffffffffffffffffffffffffffc36011261011c576020600080600435604051848101917f748f2d8a000000000000000000000000000000000000000000000000000000008352602482015260248152610570604482610670565b519073ff000000000000000000000000000000000000025afa6101148261010c6106b1565b1561059c57565b60646040517f08c379a000000000000000000000000000000000000000000000000000000000815260206004820152601c60248201527f6661696c656420746f207175657279206163636f756e742064617461000000006044820152fd5b7f4e487b7100000000000000000000000000000000000000000000000000000000600052604160045260246000fd5b601f7fffffffffffffffffffffffffffffffffffffffffffffffffffffffffffffffe09101166080016080811067ffffffffffffffff82111761066b57604052565b6105fa565b90601f7fffffffffffffffffffffffffffffffffffffffffffffffffffffffffffffffe0910116810190811067ffffffffffffffff82111761066b57604052565b3d1561070a573d9067ffffffffffffffff821161066b57604051916106fe60207fffffffffffffffffffffffffffffffffffffffffffffffffffffffffffffffe0601f8401160184610670565b82523d6000602084013e565b606090565b6000929167ffffffffffffffff8493816040519360208501957f43ca516100000000000000000000000000000000000000000000000000000000875260248601521660448401521660648201526064815261076b608482610670565b519073ff000000000000000000000000000000000000025afa9061078d6106b1565b90565b60408151106102cd57604001519056fea26469706673582212202e82501d3ded07655a728e1b72de0e7d35cc56b8bd917421720c697ce495cb1364736f6c634300081a0033",
  "linkReferences": {},
  "deployedLinkReferences": {}
}